{
	"data": {
		"bytecode": {
			"linkReferences": {},
			"object": "610432610026600b82828239805160001a60731461001957fe5b30600052607381538281f3fe730000000000000000000000000000000000000000301460806040526004361061009c5760003560e01c8063867011861161007057806386701186146101195780639ed3edf014610137578063b332d1e014610155578063e39f448a14610173578063e95a58ea146101915761009c565b80622d1b2c146100a157806334ed5057146100bf57806340b61d30146100dd5780636bbfff00146100fb575b600080fd5b6100a96101af565b6040516100b69190610338565b60405180910390f35b6100c76101b4565b6040516100d491906102e0565b60405180910390f35b6100e56101cc565b6040516100f291906102e0565b60405180910390f35b6101036101e4565b60405161011091906102e0565b60405180910390f35b6101216101fc565b60405161012e91906102fb565b60405180910390f35b61013f610235565b60405161014c919061031d565b60405180910390f35b61015d61023f565b60405161016a91906102e0565b60405180910390f35b61017b610257565b60405161018891906102e0565b60405180910390f35b61019961026f565b6040516101a6919061031d565b60405180910390f35b600481565b73a6ef9ea235635e328124ff3429db9f9e91b64e2d81565b7367460c2f56774ed27eeb8685f29f6cec0b090b0081565b73b26820ee0c9b1276aac834cf457026a575dfce8481565b6040518060400160405280600481526020017f564554480000000000000000000000000000000000000000000000000000000081525081565b655af3107a400081565b73a6ef9ea235635e328124ff3429db9f9e91b64e2d81565b7367460c2f56774ed27eeb8685f29f6cec0b090b0081565b66470de4df82000081565b6102838161036f565b82525050565b600061029482610353565b61029e818561035e565b93506102ae8185602086016103b8565b6102b7816103eb565b840191505092915050565b6102cb816103a1565b82525050565b6102da816103ab565b82525050565b60006020820190506102f5600083018461027a565b92915050565b600060208201905081810360008301526103158184610289565b905092915050565b600060208201905061033260008301846102c2565b92915050565b600060208201905061034d60008301846102d1565b92915050565b600081519050919050565b600082825260208201905092915050565b600061037a82610381565b9050919050565b600073ffffffffffffffffffffffffffffffffffffffff82169050919050565b6000819050919050565b600060ff82169050919050565b60005b838110156103d65780820151818401526020810190506103bb565b838111156103e5576000848401525b50505050565b6000601f19601f830116905091905056fea2646970667358221220e0e9f4826f4b8c9aef001419f765627192147340ce2d5dcc24d6da41f252812364736f6c63430007060033",
			"opcodes": "PUSH2 0x432 PUSH2 0x26 PUSH1 0xB DUP3 DUP3 DUP3 CODECOPY DUP1 MLOAD PUSH1 0x0 BYTE PUSH1 0x73 EQ PUSH2 0x19 JUMPI INVALID JUMPDEST ADDRESS PUSH1 0x0 MSTORE PUSH1 0x73 DUP2 MSTORE8 DUP3 DUP2 RETURN INVALID PUSH20 0x0 ADDRESS EQ PUSH1 0x80 PUSH1 0x40 MSTORE PUSH1 0x4 CALLDATASIZE LT PUSH2 0x9C JUMPI PUSH1 0x0 CALLDATALOAD PUSH1 0xE0 SHR DUP1 PUSH4 0x86701186 GT PUSH2 0x70 JUMPI DUP1 PUSH4 0x86701186 EQ PUSH2 0x119 JUMPI DUP1 PUSH4 0x9ED3EDF0 EQ PUSH2 0x137 JUMPI DUP1 PUSH4 0xB332D1E0 EQ PUSH2 0x155 JUMPI DUP1 PUSH4 0xE39F448A EQ PUSH2 0x173 JUMPI DUP1 PUSH4 0xE95A58EA EQ PUSH2 0x191 JUMPI PUSH2 0x9C JUMP JUMPDEST DUP1 PUSH3 0x2D1B2C EQ PUSH2 0xA1 JUMPI DUP1 PUSH4 0x34ED5057 EQ PUSH2 0xBF JUMPI DUP1 PUSH4 0x40B61D30 EQ PUSH2 0xDD JUMPI DUP1 PUSH4 0x6BBFFF00 EQ PUSH2 0xFB JUMPI JUMPDEST PUSH1 0x0 DUP1 REVERT JUMPDEST PUSH2 0xA9 PUSH2 0x1AF JUMP JUMPDEST PUSH1 0x40 MLOAD PUSH2 0xB6 SWAP2 SWAP1 PUSH2 0x338 JUMP JUMPDEST PUSH1 0x40 MLOAD DUP1 SWAP2 SUB SWAP1 RETURN JUMPDEST PUSH2 0xC7 PUSH2 0x1B4 JUMP JUMPDEST PUSH1 0x40 MLOAD PUSH2 0xD4 SWAP2 SWAP1 PUSH2 0x2E0 JUMP JUMPDEST PUSH1 0x40 MLOAD DUP1 SWAP2 SUB SWAP1 RETURN JUMPDEST PUSH2 0xE5 PUSH2 0x1CC JUMP JUMPDEST PUSH1 0x40 MLOAD PUSH2 0xF2 SWAP2 SWAP1 PUSH2 0x2E0 JUMP JUMPDEST PUSH1 0x40 MLOAD DUP1 SWAP2 SUB SWAP1 RETURN JUMPDEST PUSH2 0x103 PUSH2 0x1E4 JUMP JUMPDEST PUSH1 0x40 MLOAD PUSH2 0x110 SWAP2 SWAP1 PUSH2 0x2E0 JUMP JUMPDEST PUSH1 0x40 MLOAD DUP1 SWAP2 SUB SWAP1 RETURN JUMPDEST PUSH2 0x121 PUSH2 0x1FC JUMP JUMPDEST PUSH1 0x40 MLOAD PUSH2 0x12E SWAP2 SWAP1 PUSH2 0x2FB JUMP JUMPDEST PUSH1 0x40 MLOAD DUP1 SWAP2 SUB SWAP1 RETURN JUMPDEST PUSH2 0x13F PUSH2 0x235 JUMP JUMPDEST PUSH1 0x40 MLOAD PUSH2 0x14C SWAP2 SWAP1 PUSH2 0x31D JUMP JUMPDEST PUSH1 0x40 MLOAD DUP1 SWAP2 SUB SWAP1 RETURN JUMPDEST PUSH2 0x15D PUSH2 0x23F JUMP JUMPDEST PUSH1 0x40 MLOAD PUSH2 0x16A SWAP2 SWAP1 PUSH2 0x2E0 JUMP JUMPDEST PUSH1 0x40 MLOAD DUP1 SWAP2 SUB SWAP1 RETURN JUMPDEST PUSH2 0x17B PUSH2 0x257 JUMP JUMPDEST PUSH1 0x40 MLOAD PUSH2 0x188 SWAP2 SWAP1 PUSH2 0x2E0 JUMP JUMPDEST PUSH1 0x40 MLOAD DUP1 SWAP2 SUB SWAP1 RETURN JUMPDEST PUSH2 0x199 PUSH2 0x26F JUMP JUMPDEST PUSH1 0x40 MLOAD PUSH2 0x1A6 SWAP2 SWAP1 PUSH2 0x31D JUMP JUMPDEST PUSH1 0x40 MLOAD DUP1 SWAP2 SUB SWAP1 RETURN JUMPDEST PUSH1 0x4 DUP2 JUMP JUMPDEST PUSH20 0xA6EF9EA235635E328124FF3429DB9F9E91B64E2D DUP2 JUMP JUMPDEST PUSH20 0x67460C2F56774ED27EEB8685F29F6CEC0B090B00 DUP2 JUMP JUMPDEST PUSH20 0xB26820EE0C9B1276AAC834CF457026A575DFCE84 DUP2 JUMP JUMPDEST PUSH1 0x40 MLOAD DUP1 PUSH1 0x40 ADD PUSH1 0x40 MSTORE DUP1 PUSH1 0x4 DUP2 MSTORE PUSH1 0x20 ADD PUSH32 0x5645544800000000000000000000000000000000000000000000000000000000 DUP2 MSTORE POP DUP2 JUMP JUMPDEST PUSH6 0x5AF3107A4000 DUP2 JUMP JUMPDEST PUSH20 0xA6EF9EA235635E328124FF3429DB9F9E91B64E2D DUP2 JUMP JUMPDEST PUSH20 0x67460C2F56774ED27EEB8685F29F6CEC0B090B00 DUP2 JUMP JUMPDEST PUSH7 0x470DE4DF820000 DUP2 JUMP JUMPDEST PUSH2 0x283 DUP2 PUSH2 0x36F JUMP JUMPDEST DUP3 MSTORE POP POP JUMP JUMPDEST PUSH1 0x0 PUSH2 0x294 DUP3 PUSH2 0x353 JUMP JUMPDEST PUSH2 0x29E DUP2 DUP6 PUSH2 0x35E JUMP JUMPDEST SWAP4 POP PUSH2 0x2AE DUP2 DUP6 PUSH1 0x20 DUP7 ADD PUSH2 0x3B8 JUMP JUMPDEST PUSH2 0x2B7 DUP2 PUSH2 0x3EB JUMP JUMPDEST DUP5 ADD SWAP2 POP POP SWAP3 SWAP2 POP POP JUMP JUMPDEST PUSH2 0x2CB DUP2 PUSH2 0x3A1 JUMP JUMPDEST DUP3 MSTORE POP POP JUMP JUMPDEST PUSH2 0x2DA DUP2 PUSH2 0x3AB JUMP JUMPDEST DUP3 MSTORE POP POP JUMP JUMPDEST PUSH1 0x0 PUSH1 0x20 DUP3 ADD SWAP1 POP PUSH2 0x2F5 PUSH1 0x0 DUP4 ADD DUP5 PUSH2 0x27A JUMP JUMPDEST SWAP3 SWAP2 POP POP JUMP JUMPDEST PUSH1 0x0 PUSH1 0x20 DUP3 ADD SWAP1 POP DUP2 DUP2 SUB PUSH1 0x0 DUP4 ADD MSTORE PUSH2 0x315 DUP2 DUP5 PUSH2 0x289 JUMP JUMPDEST SWAP1 POP SWAP3 SWAP2 POP POP JUMP JUMPDEST PUSH1 0x0 PUSH1 0x20 DUP3 ADD SWAP1 POP PUSH2 0x332 PUSH1 0x0 DUP4 ADD DUP5 PUSH2 0x2C2 JUMP JUMPDEST SWAP3 SWAP2 POP POP JUMP JUMPDEST PUSH1 0x0 PUSH1 0x20 DUP3 ADD SWAP1 POP PUSH2 0x34D PUSH1 0x0 DUP4 ADD DUP5 PUSH2 0x2D1 JUMP JUMPDEST SWAP3 SWAP2 POP POP JUMP JUMPDEST PUSH1 0x0 DUP2 MLOAD SWAP1 POP SWAP2 SWAP1 POP JUMP JUMPDEST PUSH1 0x0 DUP3 DUP3 MSTORE PUSH1 0x20 DUP3 ADD SWAP1 POP SWAP3 SWAP2 POP POP JUMP JUMPDEST PUSH1 0x0 PUSH2 0x37A DUP3 PUSH2 0x381 JUMP JUMPDEST SWAP1 POP SWAP2 SWAP1 POP JUMP JUMPDEST PUSH1 0x0 PUSH20 0xFFFFFFFFFFFFFFFFFFFFFFFFFFFFFFFFFFFFFFFF DUP3 AND SWAP1 POP SWAP2 SWAP1 POP JUMP JUMPDEST PUSH1 0x0 DUP2 SWAP1 POP SWAP2 SWAP1 POP JUMP JUMPDEST PUSH1 0x0 PUSH1 0xFF DUP3 AND SWAP1 POP SWAP2 SWAP1 POP JUMP JUMPDEST PUSH1 0x0 JUMPDEST DUP4 DUP2 LT ISZERO PUSH2 0x3D6 JUMPI DUP1 DUP3 ADD MLOAD DUP2 DUP5 ADD MSTORE PUSH1 0x20 DUP2 ADD SWAP1 POP PUSH2 0x3BB JUMP JUMPDEST DUP4 DUP2 GT ISZERO PUSH2 0x3E5 JUMPI PUSH1 0x0 DUP5 DUP5 ADD MSTORE JUMPDEST POP POP POP POP JUMP JUMPDEST PUSH1 0x0 PUSH1 0x1F NOT PUSH1 0x1F DUP4 ADD AND SWAP1 POP SWAP2 SWAP1 POP JUMP INVALID LOG2 PUSH5 0x6970667358 0x22 SLT KECCAK256 0xE0 0xE9 DELEGATECALL DUP3 PUSH16 0x4B8C9AEF001419F765627192147340CE 0x2D 0x5D 0xCC 0x24 0xD6 0xDA COINBASE CALLCODE MSTORE DUP2 0x23 PUSH5 0x736F6C6343 STOP SMOD MOD STOP CALLER "
		},
		"gasEstimates": {
			"creation": {
				"codeDepositCost": "214800",
				"executionCost": "282",
				"totalCost": "215082"
			},
			"external": {
				"EthSystemID()": "428",
				"RewardAddress()": "429",
				"RewardAddressType()": "320",
				"VEth()": "407",
				"VerusCurrencyId()": "406",
				"VerusSystemId()": "385",
				"currencyName()": "infinite",
				"transactionFee()": "335",
				"verusTransactionFee()": "401"
			}
		},
		"methodIdentifiers": {
			"EthSystemID()": "e39f448a",
			"RewardAddress()": "6bbfff00",
			"RewardAddressType()": "002d1b2c",
			"VEth()": "40b61d30",
			"VerusCurrencyId()": "b332d1e0",
			"VerusSystemId()": "34ed5057",
			"currencyName()": "86701186",
			"transactionFee()": "9ed3edf0",
			"verusTransactionFee()": "e95a58ea"
		}
	},
	"abi": [
		{
			"inputs": [],
			"name": "EthSystemID",
			"outputs": [
				{
					"internalType": "address",
					"name": "",
					"type": "address"
				}
			],
			"stateMutability": "view",
			"type": "function"
		},
		{
			"inputs": [],
			"name": "RewardAddress",
			"outputs": [
				{
					"internalType": "address",
					"name": "",
					"type": "address"
				}
			],
			"stateMutability": "view",
			"type": "function"
		},
		{
			"inputs": [],
			"name": "RewardAddressType",
			"outputs": [
				{
					"internalType": "uint8",
					"name": "",
					"type": "uint8"
				}
			],
			"stateMutability": "view",
			"type": "function"
		},
		{
			"inputs": [],
			"name": "VEth",
			"outputs": [
				{
					"internalType": "address",
					"name": "",
					"type": "address"
				}
			],
			"stateMutability": "view",
			"type": "function"
		},
		{
			"inputs": [],
			"name": "VerusCurrencyId",
			"outputs": [
				{
					"internalType": "address",
					"name": "",
					"type": "address"
				}
			],
			"stateMutability": "view",
			"type": "function"
		},
		{
			"inputs": [],
			"name": "VerusSystemId",
			"outputs": [
				{
					"internalType": "address",
					"name": "",
					"type": "address"
				}
			],
			"stateMutability": "view",
			"type": "function"
		},
		{
			"inputs": [],
			"name": "currencyName",
			"outputs": [
				{
					"internalType": "string",
					"name": "",
					"type": "string"
				}
			],
			"stateMutability": "view",
			"type": "function"
		},
		{
			"inputs": [],
			"name": "transactionFee",
			"outputs": [
				{
					"internalType": "uint256",
					"name": "",
					"type": "uint256"
				}
			],
			"stateMutability": "view",
			"type": "function"
		},
		{
			"inputs": [],
			"name": "verusTransactionFee",
			"outputs": [
				{
					"internalType": "uint256",
					"name": "",
					"type": "uint256"
				}
			],
			"stateMutability": "view",
			"type": "function"
		}
	]
}