{
	"data": {
		"bytecode": {
			"linkReferences": {},
			"object": "60806040523480156200001157600080fd5b5060405162001f6238038062001f62833981810160405281019062000037919062000096565b80600260006101000a81548173ffffffffffffffffffffffffffffffffffffffff021916908373ffffffffffffffffffffffffffffffffffffffff1602179055505062000110565b6000815190506200009081620000f6565b92915050565b600060208284031215620000a957600080fd5b6000620000b9848285016200007f565b91505092915050565b6000620000cf82620000d6565b9050919050565b600073ffffffffffffffffffffffffffffffffffffffff82169050919050565b6200010181620000c2565b81146200010d57600080fd5b50565b611e4280620001206000396000f3fe608060405234801561001057600080fd5b50600436106100415760003560e01c806338eb07e114610046578063bdfcfddd14610076578063d5b91a92146100a6575b600080fd5b610060600480360381019061005b9190611748565b6100d6565b60405161006d9190611bac565b60405180910390f35b610090600480360381019061008b91906116c6565b610135565b60405161009d9190611b8a565b60405180910390f35b6100c060048036038101906100bb9190611748565b610bcc565b6040516100cd9190611bac565b60405180910390f35b600080600a9050600084905060088460ff16111561010b576008840391508160ff16600a0a858161010357fe5b04905061012a565b60088460ff161015610129578360080391508160ff16600a0a850290505b5b809250505092915050565b61013d611229565b610145611229565b6000600260009054906101000a900473ffffffffffffffffffffffffffffffffffffffff1673ffffffffffffffffffffffffffffffffffffffff16632a4edd708560006040518363ffffffff1660e01b81526004016101a5929190611b5a565b60006040518083038186803b1580156101bd57600080fd5b505afa1580156101d1573d6000803e3d6000fd5b505050506040513d6000823e3d601f19601f820116820180604052508101906101fa9190611707565b90506000818051906020012090506001836000019061ffff16908161ffff16815250506002836020019061ffff16908161ffff168152505043836060019063ffffffff16908163ffffffff168152505043836080019063ffffffff16908163ffffffff16815250507367460c2f56774ed27eeb8685f29f6cec0b090b00836040019073ffffffffffffffffffffffffffffffffffffffff16908173ffffffffffffffffffffffffffffffffffffffff168152505073a6ef9ea235635e328124ff3429db9f9e91b64e2d8360a0019073ffffffffffffffffffffffffffffffffffffffff16908173ffffffffffffffffffffffffffffffffffffffff16815250508460008151811061030757fe5b602002602001015160c001518360c0019073ffffffffffffffffffffffffffffffffffffffff16908173ffffffffffffffffffffffffffffffffffffffff168152505084518360e0019063ffffffff16908163ffffffff1681525050600080600080600090505b885181101561088f5761039b89828151811061038657fe5b60200260200101516020015160000151610c2b565b935060008460070b12610425578881815181106103b457fe5b6020026020010151602001516020015160008560070b815481106103d457fe5b9060005260206000200160000160148282829054906101000a900467ffffffffffffffff160192506101000a81548167ffffffffffffffff021916908367ffffffffffffffff160217905550610530565b600060405180604001604052808b848151811061043e57fe5b6020026020010151602001516000015173ffffffffffffffffffffffffffffffffffffffff1681526020018b848151811061047557fe5b6020026020010151602001516020015167ffffffffffffffff168152509080600181540180825580915050600190039060005260206000200160009091909190915060008201518160000160006101000a81548173ffffffffffffffffffffffffffffffffffffffff021916908373ffffffffffffffffffffffffffffffffffffffff16021790555060208201518160000160146101000a81548167ffffffffffffffff021916908367ffffffffffffffff16021790555050505b61055089828151811061053f57fe5b602002602001015160600151610c2b565b925060008360070b126105d65788818151811061056957fe5b60200260200101516080015160008460070b8154811061058557fe5b9060005260206000200160000160148282829054906101000a900467ffffffffffffffff160192506101000a81548167ffffffffffffffff021916908367ffffffffffffffff1602179055506106d9565b600060405180604001604052808b84815181106105ef57fe5b60200260200101516060015173ffffffffffffffffffffffffffffffffffffffff1681526020018b848151811061062257fe5b60200260200101516080015167ffffffffffffffff168152509080600181540180825580915050600190039060005260206000200160009091909190915060008201518160000160006101000a81548173ffffffffffffffffffffffffffffffffffffffff021916908373ffffffffffffffffffffffffffffffffffffffff16021790555060208201518160000160146101000a81548167ffffffffffffffff021916908367ffffffffffffffff16021790555050505b6106f98982815181106106e857fe5b602002602001015160600151610cf8565b915060008260070b1261077f5788818151811061071257fe5b60200260200101516080015160018360070b8154811061072e57fe5b9060005260206000200160000160148282829054906101000a900467ffffffffffffffff160192506101000a81548167ffffffffffffffff021916908367ffffffffffffffff160217905550610882565b600160405180604001604052808b848151811061079857fe5b60200260200101516060015173ffffffffffffffffffffffffffffffffffffffff1681526020018b84815181106107cb57fe5b60200260200101516080015167ffffffffffffffff168152509080600181540180825580915050600190039060005260206000200160009091909190915060008201518160000160006101000a81548173ffffffffffffffffffffffffffffffffffffffff021916908373ffffffffffffffffffffffffffffffffffffffff16021790555060208201518160000160146101000a81548167ffffffffffffffff021916908367ffffffffffffffff16021790555050505b808060010191505061036e565b506108a4600080600160008054905003610dc5565b6108b8600160006001808054905003610dc5565b6000805480602002602001604051908101604052809291908181526020016000905b82821015610990578382906000526020600020016040518060400160405290816000820160009054906101000a900473ffffffffffffffffffffffffffffffffffffffff1673ffffffffffffffffffffffffffffffffffffffff1673ffffffffffffffffffffffffffffffffffffffff1681526020016000820160149054906101000a900467ffffffffffffffff1667ffffffffffffffff1667ffffffffffffffff1681525050815260200190600101906108da565b505050508661010001819052506001805480602002602001604051908101604052809291908181526020016000905b82821015610a75578382906000526020600020016040518060400160405290816000820160009054906101000a900473ffffffffffffffffffffffffffffffffffffffff1673ffffffffffffffffffffffffffffffffffffffff1673ffffffffffffffffffffffffffffffffffffffff1681526020016000820160149054906101000a900467ffffffffffffffff1667ffffffffffffffff1667ffffffffffffffff1681525050815260200190600101906109bf565b50505050866101200181905250838661014001818152505060006040518060400160405280600073ffffffffffffffffffffffffffffffffffffffff168152602001600067ffffffffffffffff168152509050600167ffffffffffffffff81118015610ae057600080fd5b50604051908082528060200260200182016040528015610b1a57816020015b610b07611300565b815260200190600190039081610aff5790505b5087610160018190525080876101600151600081518110610b3757fe5b60200260200101819052506040518060400160405280600460ff16815260200173b26820ee0c9b1276aac834cf457026a575dfce8473ffffffffffffffffffffffffffffffffffffffff168152508761018001819052506001876101a0019060030b908160030b81525050600080610baf919061133a565b60016000610bbd919061133a565b86975050505050505050919050565b600080600a9050600084905060088460ff161115610bfa576008840391508160ff16600a0a85029050610c20565b60088460ff161015610c1f578360080391508160ff16600a0a8581610c1b57fe5b0490505b5b809250505092915050565b600080600090505b60008054905067ffffffffffffffff16811015610cce578273ffffffffffffffffffffffffffffffffffffffff1660008281548110610c6e57fe5b9060005260206000200160000160009054906101000a900473ffffffffffffffffffffffffffffffffffffffff1673ffffffffffffffffffffffffffffffffffffffff161415610cc15780915050610cf3565b8080600101915050610c33565b507fffffffffffffffffffffffffffffffffffffffffffffffffffffffffffffffff90505b919050565b600080600090505b60018054905067ffffffffffffffff16811015610d9b578273ffffffffffffffffffffffffffffffffffffffff1660018281548110610d3b57fe5b9060005260206000200160000160009054906101000a900473ffffffffffffffffffffffffffffffffffffffff1673ffffffffffffffffffffffffffffffffffffffff161415610d8e5780915050610dc0565b8080600101915050610d00565b507fffffffffffffffffffffffffffffffffffffffffffffffffffffffffffffffff90505b919050565b6000829050600082905080821415610dde575050611224565b600085600286860381610ded57fe5b05860173ffffffffffffffffffffffffffffffffffffffff1681548110610e1057fe5b9060005260206000200160000160009054906101000a900473ffffffffffffffffffffffffffffffffffffffff1690505b8183136111f8575b8073ffffffffffffffffffffffffffffffffffffffff16868473ffffffffffffffffffffffffffffffffffffffff1681548110610e8257fe5b9060005260206000200160000160009054906101000a900473ffffffffffffffffffffffffffffffffffffffff1673ffffffffffffffffffffffffffffffffffffffff161015610ed9578280600101935050610e49565b5b858273ffffffffffffffffffffffffffffffffffffffff1681548110610efc57fe5b9060005260206000200160000160009054906101000a900473ffffffffffffffffffffffffffffffffffffffff1673ffffffffffffffffffffffffffffffffffffffff168173ffffffffffffffffffffffffffffffffffffffff161015610f6b57818060019003925050610eda565b8183136111f3576000868473ffffffffffffffffffffffffffffffffffffffff1681548110610f9657fe5b906000526020600020016040518060400160405290816000820160009054906101000a900473ffffffffffffffffffffffffffffffffffffffff1673ffffffffffffffffffffffffffffffffffffffff1673ffffffffffffffffffffffffffffffffffffffff1681526020016000820160149054906101000a900467ffffffffffffffff1667ffffffffffffffff1667ffffffffffffffff16815250509050868373ffffffffffffffffffffffffffffffffffffffff168154811061105757fe5b90600052602060002001878573ffffffffffffffffffffffffffffffffffffffff168154811061108357fe5b906000526020600020016000820160009054906101000a900473ffffffffffffffffffffffffffffffffffffffff168160000160006101000a81548173ffffffffffffffffffffffffffffffffffffffff021916908373ffffffffffffffffffffffffffffffffffffffff1602179055506000820160149054906101000a900467ffffffffffffffff168160000160146101000a81548167ffffffffffffffff021916908367ffffffffffffffff16021790555090505080878473ffffffffffffffffffffffffffffffffffffffff168154811061115d57fe5b9060005260206000200160008201518160000160006101000a81548173ffffffffffffffffffffffffffffffffffffffff021916908373ffffffffffffffffffffffffffffffffffffffff16021790555060208201518160000160146101000a81548167ffffffffffffffff021916908367ffffffffffffffff1602179055509050508380600101945050828060019003935050505b610e41565b8185121561120c5761120b868684610dc5565b5b838312156112205761121f868486610dc5565b5b5050505b505050565b604051806101c00160405280600061ffff168152602001600061ffff168152602001600073ffffffffffffffffffffffffffffffffffffffff168152602001600063ffffffff168152602001600063ffffffff168152602001600073ffffffffffffffffffffffffffffffffffffffff168152602001600073ffffffffffffffffffffffffffffffffffffffff168152602001600063ffffffff168152602001606081526020016060815260200160008019168152602001606081526020016112f061135b565b8152602001600060030b81525090565b6040518060400160405280600073ffffffffffffffffffffffffffffffffffffffff168152602001600067ffffffffffffffff1681525090565b5080546000825590600052602060002090810190611358919061138e565b50565b6040518060400160405280600060ff168152602001600073ffffffffffffffffffffffffffffffffffffffff1681525090565b5b808211156113e357600080820160006101000a81549073ffffffffffffffffffffffffffffffffffffffff02191690556000820160146101000a81549067ffffffffffffffff02191690555060010161138f565b5090565b60006113fa6113f584611bf8565b611bc7565b905080838252602082019050828561016086028201111561141a57600080fd5b60005b8581101561144b57816114308882611548565b8452602084019350610160830192505060018101905061141d565b5050509392505050565b600061146861146384611c24565b611bc7565b90508281526020810184848401111561148057600080fd5b61148b848285611d64565b509392505050565b6000813590506114a281611d99565b92915050565b600082601f8301126114b957600080fd5b81356114c98482602086016113e7565b91505092915050565b600082601f8301126114e357600080fd5b81516114f3848260208601611455565b91505092915050565b60006040828403121561150e57600080fd5b6115186040611bc7565b9050600061152884828501611493565b600083015250602061153c8482850161169c565b60208301525092915050565b6000610160828403121561155b57600080fd5b611566610120611bc7565b9050600061157684828501611687565b600083015250602061158a848285016114fc565b602083015250606061159e84828501611687565b60408301525060806115b284828501611493565b60608301525060a06115c684828501611672565b60808301525060c06115da84828501611626565b60a0830152506101006115ef84828501611493565b60c08301525061012061160484828501611493565b60e08301525061014061161984828501611493565b6101008301525092915050565b60006040828403121561163857600080fd5b6116426040611bc7565b90506000611652848285016116b1565b600083015250602061166684828501611493565b60208301525092915050565b60008135905061168181611db0565b92915050565b60008135905061169681611dc7565b92915050565b6000813590506116ab81611dde565b92915050565b6000813590506116c081611df5565b92915050565b6000602082840312156116d857600080fd5b600082013567ffffffffffffffff8111156116f257600080fd5b6116fe848285016114a8565b91505092915050565b60006020828403121561171957600080fd5b600082015167ffffffffffffffff81111561173357600080fd5b61173f848285016114d2565b91505092915050565b6000806040838503121561175b57600080fd5b600061176985828601611672565b925050602061177a858286016116b1565b9150509250929050565b600061179083836119e9565b60408301905092915050565b60006117a88383611a18565b6101608301905092915050565b6117be81611cc6565b82525050565b60006117cf82611c74565b6117d98185611ca4565b93506117e483611c54565b8060005b838110156118155781516117fc8882611784565b975061180783611c8a565b9250506001810190506117e8565b5085935050505092915050565b600061182d82611c7f565b6118378185611cb5565b935061184283611c64565b8060005b8381101561187357815161185a888261179c565b975061186583611c97565b925050600181019050611846565b5085935050505092915050565b61188981611cd8565b82525050565b61189881611ce4565b82525050565b6118a781611cee565b82525050565b60006101e0830160008301516118c66000860182611b00565b5060208301516118d96020860182611b00565b5060408301516118ec60408601826117b5565b5060608301516118ff6060860182611b2d565b5060808301516119126080860182611b2d565b5060a083015161192560a08601826117b5565b5060c083015161193860c08601826117b5565b5060e083015161194b60e0860182611b2d565b5061010083015184820361010086015261196582826117c4565b91505061012083015184820361012086015261198182826117c4565b91505061014083015161199861014086018261188f565b506101608301518482036101608601526119b282826117c4565b9150506101808301516119c9610180860182611ad1565b506101a08301516119de6101c086018261189e565b508091505092915050565b6040820160008201516119ff60008501826117b5565b506020820151611a126020850182611b3c565b50505050565b61016082016000820151611a2f6000850182611b2d565b506020820151611a4260208501826119e9565b506040820151611a556060850182611b2d565b506060820151611a6860808501826117b5565b506080820151611a7b60a0850182611b0f565b5060a0820151611a8e60c0850182611ad1565b5060c0820151611aa26101008501826117b5565b5060e0820151611ab66101208501826117b5565b50610100820151611acb6101408501826117b5565b50505050565b604082016000820151611ae76000850182611b4b565b506020820151611afa60208501826117b5565b50505050565b611b0981611cfb565b82525050565b611b1881611d29565b82525050565b611b2781611d29565b82525050565b611b3681611d33565b82525050565b611b4581611d43565b82525050565b611b5481611d57565b82525050565b60006040820190508181036000830152611b748185611822565b9050611b836020830184611880565b9392505050565b60006020820190508181036000830152611ba481846118ad565b905092915050565b6000602082019050611bc16000830184611b1e565b92915050565b6000604051905081810181811067ffffffffffffffff82111715611bee57611bed611d97565b5b8060405250919050565b600067ffffffffffffffff821115611c1357611c12611d97565b5b602082029050602081019050919050565b600067ffffffffffffffff821115611c3f57611c3e611d97565b5b601f19601f8301169050602081019050919050565b6000819050602082019050919050565b6000819050602082019050919050565b600081519050919050565b600081519050919050565b6000602082019050919050565b6000602082019050919050565b600082825260208201905092915050565b600082825260208201905092915050565b6000611cd182611d09565b9050919050565b60008115159050919050565b6000819050919050565b60008160030b9050919050565b600061ffff82169050919050565b600073ffffffffffffffffffffffffffffffffffffffff82169050919050565b6000819050919050565b600063ffffffff82169050919050565b600067ffffffffffffffff82169050919050565b600060ff82169050919050565b60005b83811015611d82578082015181840152602081019050611d67565b83811115611d91576000848401525b50505050565bfe5b611da281611cc6565b8114611dad57600080fd5b50565b611db981611d29565b8114611dc457600080fd5b50565b611dd081611d33565b8114611ddb57600080fd5b50565b611de781611d43565b8114611df257600080fd5b50565b611dfe81611d57565b8114611e0957600080fd5b5056fea2646970667358221220625eb96d506a829595efcfc4077357d0555e1d58fca91e6f1fcd182cf80f6a0d64736f6c63430007060033",
			"opcodes": "PUSH1 0x80 PUSH1 0x40 MSTORE CALLVALUE DUP1 ISZERO PUSH3 0x11 JUMPI PUSH1 0x0 DUP1 REVERT JUMPDEST POP PUSH1 0x40 MLOAD PUSH3 0x1F62 CODESIZE SUB DUP1 PUSH3 0x1F62 DUP4 CODECOPY DUP2 DUP2 ADD PUSH1 0x40 MSTORE DUP2 ADD SWAP1 PUSH3 0x37 SWAP2 SWAP1 PUSH3 0x96 JUMP JUMPDEST DUP1 PUSH1 0x2 PUSH1 0x0 PUSH2 0x100 EXP DUP2 SLOAD DUP2 PUSH20 0xFFFFFFFFFFFFFFFFFFFFFFFFFFFFFFFFFFFFFFFF MUL NOT AND SWAP1 DUP4 PUSH20 0xFFFFFFFFFFFFFFFFFFFFFFFFFFFFFFFFFFFFFFFF AND MUL OR SWAP1 SSTORE POP POP PUSH3 0x110 JUMP JUMPDEST PUSH1 0x0 DUP2 MLOAD SWAP1 POP PUSH3 0x90 DUP2 PUSH3 0xF6 JUMP JUMPDEST SWAP3 SWAP2 POP POP JUMP JUMPDEST PUSH1 0x0 PUSH1 0x20 DUP3 DUP5 SUB SLT ISZERO PUSH3 0xA9 JUMPI PUSH1 0x0 DUP1 REVERT JUMPDEST PUSH1 0x0 PUSH3 0xB9 DUP5 DUP3 DUP6 ADD PUSH3 0x7F JUMP JUMPDEST SWAP2 POP POP SWAP3 SWAP2 POP POP JUMP JUMPDEST PUSH1 0x0 PUSH3 0xCF DUP3 PUSH3 0xD6 JUMP JUMPDEST SWAP1 POP SWAP2 SWAP1 POP JUMP JUMPDEST PUSH1 0x0 PUSH20 0xFFFFFFFFFFFFFFFFFFFFFFFFFFFFFFFFFFFFFFFF DUP3 AND SWAP1 POP SWAP2 SWAP1 POP JUMP JUMPDEST PUSH3 0x101 DUP2 PUSH3 0xC2 JUMP JUMPDEST DUP2 EQ PUSH3 0x10D JUMPI PUSH1 0x0 DUP1 REVERT JUMPDEST POP JUMP JUMPDEST PUSH2 0x1E42 DUP1 PUSH3 0x120 PUSH1 0x0 CODECOPY PUSH1 0x0 RETURN INVALID PUSH1 0x80 PUSH1 0x40 MSTORE CALLVALUE DUP1 ISZERO PUSH2 0x10 JUMPI PUSH1 0x0 DUP1 REVERT JUMPDEST POP PUSH1 0x4 CALLDATASIZE LT PUSH2 0x41 JUMPI PUSH1 0x0 CALLDATALOAD PUSH1 0xE0 SHR DUP1 PUSH4 0x38EB07E1 EQ PUSH2 0x46 JUMPI DUP1 PUSH4 0xBDFCFDDD EQ PUSH2 0x76 JUMPI DUP1 PUSH4 0xD5B91A92 EQ PUSH2 0xA6 JUMPI JUMPDEST PUSH1 0x0 DUP1 REVERT JUMPDEST PUSH2 0x60 PUSH1 0x4 DUP1 CALLDATASIZE SUB DUP2 ADD SWAP1 PUSH2 0x5B SWAP2 SWAP1 PUSH2 0x1748 JUMP JUMPDEST PUSH2 0xD6 JUMP JUMPDEST PUSH1 0x40 MLOAD PUSH2 0x6D SWAP2 SWAP1 PUSH2 0x1BAC JUMP JUMPDEST PUSH1 0x40 MLOAD DUP1 SWAP2 SUB SWAP1 RETURN JUMPDEST PUSH2 0x90 PUSH1 0x4 DUP1 CALLDATASIZE SUB DUP2 ADD SWAP1 PUSH2 0x8B SWAP2 SWAP1 PUSH2 0x16C6 JUMP JUMPDEST PUSH2 0x135 JUMP JUMPDEST PUSH1 0x40 MLOAD PUSH2 0x9D SWAP2 SWAP1 PUSH2 0x1B8A JUMP JUMPDEST PUSH1 0x40 MLOAD DUP1 SWAP2 SUB SWAP1 RETURN JUMPDEST PUSH2 0xC0 PUSH1 0x4 DUP1 CALLDATASIZE SUB DUP2 ADD SWAP1 PUSH2 0xBB SWAP2 SWAP1 PUSH2 0x1748 JUMP JUMPDEST PUSH2 0xBCC JUMP JUMPDEST PUSH1 0x40 MLOAD PUSH2 0xCD SWAP2 SWAP1 PUSH2 0x1BAC JUMP JUMPDEST PUSH1 0x40 MLOAD DUP1 SWAP2 SUB SWAP1 RETURN JUMPDEST PUSH1 0x0 DUP1 PUSH1 0xA SWAP1 POP PUSH1 0x0 DUP5 SWAP1 POP PUSH1 0x8 DUP5 PUSH1 0xFF AND GT ISZERO PUSH2 0x10B JUMPI PUSH1 0x8 DUP5 SUB SWAP2 POP DUP2 PUSH1 0xFF AND PUSH1 0xA EXP DUP6 DUP2 PUSH2 0x103 JUMPI INVALID JUMPDEST DIV SWAP1 POP PUSH2 0x12A JUMP JUMPDEST PUSH1 0x8 DUP5 PUSH1 0xFF AND LT ISZERO PUSH2 0x129 JUMPI DUP4 PUSH1 0x8 SUB SWAP2 POP DUP2 PUSH1 0xFF AND PUSH1 0xA EXP DUP6 MUL SWAP1 POP JUMPDEST JUMPDEST DUP1 SWAP3 POP POP POP SWAP3 SWAP2 POP POP JUMP JUMPDEST PUSH2 0x13D PUSH2 0x1229 JUMP JUMPDEST PUSH2 0x145 PUSH2 0x1229 JUMP JUMPDEST PUSH1 0x0 PUSH1 0x2 PUSH1 0x0 SWAP1 SLOAD SWAP1 PUSH2 0x100 EXP SWAP1 DIV PUSH20 0xFFFFFFFFFFFFFFFFFFFFFFFFFFFFFFFFFFFFFFFF AND PUSH20 0xFFFFFFFFFFFFFFFFFFFFFFFFFFFFFFFFFFFFFFFF AND PUSH4 0x2A4EDD70 DUP6 PUSH1 0x0 PUSH1 0x40 MLOAD DUP4 PUSH4 0xFFFFFFFF AND PUSH1 0xE0 SHL DUP2 MSTORE PUSH1 0x4 ADD PUSH2 0x1A5 SWAP3 SWAP2 SWAP1 PUSH2 0x1B5A JUMP JUMPDEST PUSH1 0x0 PUSH1 0x40 MLOAD DUP1 DUP4 SUB DUP2 DUP7 DUP1 EXTCODESIZE ISZERO DUP1 ISZERO PUSH2 0x1BD JUMPI PUSH1 0x0 DUP1 REVERT JUMPDEST POP GAS STATICCALL ISZERO DUP1 ISZERO PUSH2 0x1D1 JUMPI RETURNDATASIZE PUSH1 0x0 DUP1 RETURNDATACOPY RETURNDATASIZE PUSH1 0x0 REVERT JUMPDEST POP POP POP POP PUSH1 0x40 MLOAD RETURNDATASIZE PUSH1 0x0 DUP3 RETURNDATACOPY RETURNDATASIZE PUSH1 0x1F NOT PUSH1 0x1F DUP3 ADD AND DUP3 ADD DUP1 PUSH1 0x40 MSTORE POP DUP2 ADD SWAP1 PUSH2 0x1FA SWAP2 SWAP1 PUSH2 0x1707 JUMP JUMPDEST SWAP1 POP PUSH1 0x0 DUP2 DUP1 MLOAD SWAP1 PUSH1 0x20 ADD KECCAK256 SWAP1 POP PUSH1 0x1 DUP4 PUSH1 0x0 ADD SWAP1 PUSH2 0xFFFF AND SWAP1 DUP2 PUSH2 0xFFFF AND DUP2 MSTORE POP POP PUSH1 0x2 DUP4 PUSH1 0x20 ADD SWAP1 PUSH2 0xFFFF AND SWAP1 DUP2 PUSH2 0xFFFF AND DUP2 MSTORE POP POP NUMBER DUP4 PUSH1 0x60 ADD SWAP1 PUSH4 0xFFFFFFFF AND SWAP1 DUP2 PUSH4 0xFFFFFFFF AND DUP2 MSTORE POP POP NUMBER DUP4 PUSH1 0x80 ADD SWAP1 PUSH4 0xFFFFFFFF AND SWAP1 DUP2 PUSH4 0xFFFFFFFF AND DUP2 MSTORE POP POP PUSH20 0x67460C2F56774ED27EEB8685F29F6CEC0B090B00 DUP4 PUSH1 0x40 ADD SWAP1 PUSH20 0xFFFFFFFFFFFFFFFFFFFFFFFFFFFFFFFFFFFFFFFF AND SWAP1 DUP2 PUSH20 0xFFFFFFFFFFFFFFFFFFFFFFFFFFFFFFFFFFFFFFFF AND DUP2 MSTORE POP POP PUSH20 0xA6EF9EA235635E328124FF3429DB9F9E91B64E2D DUP4 PUSH1 0xA0 ADD SWAP1 PUSH20 0xFFFFFFFFFFFFFFFFFFFFFFFFFFFFFFFFFFFFFFFF AND SWAP1 DUP2 PUSH20 0xFFFFFFFFFFFFFFFFFFFFFFFFFFFFFFFFFFFFFFFF AND DUP2 MSTORE POP POP DUP5 PUSH1 0x0 DUP2 MLOAD DUP2 LT PUSH2 0x307 JUMPI INVALID JUMPDEST PUSH1 0x20 MUL PUSH1 0x20 ADD ADD MLOAD PUSH1 0xC0 ADD MLOAD DUP4 PUSH1 0xC0 ADD SWAP1 PUSH20 0xFFFFFFFFFFFFFFFFFFFFFFFFFFFFFFFFFFFFFFFF AND SWAP1 DUP2 PUSH20 0xFFFFFFFFFFFFFFFFFFFFFFFFFFFFFFFFFFFFFFFF AND DUP2 MSTORE POP POP DUP5 MLOAD DUP4 PUSH1 0xE0 ADD SWAP1 PUSH4 0xFFFFFFFF AND SWAP1 DUP2 PUSH4 0xFFFFFFFF AND DUP2 MSTORE POP POP PUSH1 0x0 DUP1 PUSH1 0x0 DUP1 PUSH1 0x0 SWAP1 POP JUMPDEST DUP9 MLOAD DUP2 LT ISZERO PUSH2 0x88F JUMPI PUSH2 0x39B DUP10 DUP3 DUP2 MLOAD DUP2 LT PUSH2 0x386 JUMPI INVALID JUMPDEST PUSH1 0x20 MUL PUSH1 0x20 ADD ADD MLOAD PUSH1 0x20 ADD MLOAD PUSH1 0x0 ADD MLOAD PUSH2 0xC2B JUMP JUMPDEST SWAP4 POP PUSH1 0x0 DUP5 PUSH1 0x7 SIGNEXTEND SLT PUSH2 0x425 JUMPI DUP9 DUP2 DUP2 MLOAD DUP2 LT PUSH2 0x3B4 JUMPI INVALID JUMPDEST PUSH1 0x20 MUL PUSH1 0x20 ADD ADD MLOAD PUSH1 0x20 ADD MLOAD PUSH1 0x20 ADD MLOAD PUSH1 0x0 DUP6 PUSH1 0x7 SIGNEXTEND DUP2 SLOAD DUP2 LT PUSH2 0x3D4 JUMPI INVALID JUMPDEST SWAP1 PUSH1 0x0 MSTORE PUSH1 0x20 PUSH1 0x0 KECCAK256 ADD PUSH1 0x0 ADD PUSH1 0x14 DUP3 DUP3 DUP3 SWAP1 SLOAD SWAP1 PUSH2 0x100 EXP SWAP1 DIV PUSH8 0xFFFFFFFFFFFFFFFF AND ADD SWAP3 POP PUSH2 0x100 EXP DUP2 SLOAD DUP2 PUSH8 0xFFFFFFFFFFFFFFFF MUL NOT AND SWAP1 DUP4 PUSH8 0xFFFFFFFFFFFFFFFF AND MUL OR SWAP1 SSTORE POP PUSH2 0x530 JUMP JUMPDEST PUSH1 0x0 PUSH1 0x40 MLOAD DUP1 PUSH1 0x40 ADD PUSH1 0x40 MSTORE DUP1 DUP12 DUP5 DUP2 MLOAD DUP2 LT PUSH2 0x43E JUMPI INVALID JUMPDEST PUSH1 0x20 MUL PUSH1 0x20 ADD ADD MLOAD PUSH1 0x20 ADD MLOAD PUSH1 0x0 ADD MLOAD PUSH20 0xFFFFFFFFFFFFFFFFFFFFFFFFFFFFFFFFFFFFFFFF AND DUP2 MSTORE PUSH1 0x20 ADD DUP12 DUP5 DUP2 MLOAD DUP2 LT PUSH2 0x475 JUMPI INVALID JUMPDEST PUSH1 0x20 MUL PUSH1 0x20 ADD ADD MLOAD PUSH1 0x20 ADD MLOAD PUSH1 0x20 ADD MLOAD PUSH8 0xFFFFFFFFFFFFFFFF AND DUP2 MSTORE POP SWAP1 DUP1 PUSH1 0x1 DUP2 SLOAD ADD DUP1 DUP3 SSTORE DUP1 SWAP2 POP POP PUSH1 0x1 SWAP1 SUB SWAP1 PUSH1 0x0 MSTORE PUSH1 0x20 PUSH1 0x0 KECCAK256 ADD PUSH1 0x0 SWAP1 SWAP2 SWAP1 SWAP2 SWAP1 SWAP2 POP PUSH1 0x0 DUP3 ADD MLOAD DUP2 PUSH1 0x0 ADD PUSH1 0x0 PUSH2 0x100 EXP DUP2 SLOAD DUP2 PUSH20 0xFFFFFFFFFFFFFFFFFFFFFFFFFFFFFFFFFFFFFFFF MUL NOT AND SWAP1 DUP4 PUSH20 0xFFFFFFFFFFFFFFFFFFFFFFFFFFFFFFFFFFFFFFFF AND MUL OR SWAP1 SSTORE POP PUSH1 0x20 DUP3 ADD MLOAD DUP2 PUSH1 0x0 ADD PUSH1 0x14 PUSH2 0x100 EXP DUP2 SLOAD DUP2 PUSH8 0xFFFFFFFFFFFFFFFF MUL NOT AND SWAP1 DUP4 PUSH8 0xFFFFFFFFFFFFFFFF AND MUL OR SWAP1 SSTORE POP POP POP JUMPDEST PUSH2 0x550 DUP10 DUP3 DUP2 MLOAD DUP2 LT PUSH2 0x53F JUMPI INVALID JUMPDEST PUSH1 0x20 MUL PUSH1 0x20 ADD ADD MLOAD PUSH1 0x60 ADD MLOAD PUSH2 0xC2B JUMP JUMPDEST SWAP3 POP PUSH1 0x0 DUP4 PUSH1 0x7 SIGNEXTEND SLT PUSH2 0x5D6 JUMPI DUP9 DUP2 DUP2 MLOAD DUP2 LT PUSH2 0x569 JUMPI INVALID JUMPDEST PUSH1 0x20 MUL PUSH1 0x20 ADD ADD MLOAD PUSH1 0x80 ADD MLOAD PUSH1 0x0 DUP5 PUSH1 0x7 SIGNEXTEND DUP2 SLOAD DUP2 LT PUSH2 0x585 JUMPI INVALID JUMPDEST SWAP1 PUSH1 0x0 MSTORE PUSH1 0x20 PUSH1 0x0 KECCAK256 ADD PUSH1 0x0 ADD PUSH1 0x14 DUP3 DUP3 DUP3 SWAP1 SLOAD SWAP1 PUSH2 0x100 EXP SWAP1 DIV PUSH8 0xFFFFFFFFFFFFFFFF AND ADD SWAP3 POP PUSH2 0x100 EXP DUP2 SLOAD DUP2 PUSH8 0xFFFFFFFFFFFFFFFF MUL NOT AND SWAP1 DUP4 PUSH8 0xFFFFFFFFFFFFFFFF AND MUL OR SWAP1 SSTORE POP PUSH2 0x6D9 JUMP JUMPDEST PUSH1 0x0 PUSH1 0x40 MLOAD DUP1 PUSH1 0x40 ADD PUSH1 0x40 MSTORE DUP1 DUP12 DUP5 DUP2 MLOAD DUP2 LT PUSH2 0x5EF JUMPI INVALID JUMPDEST PUSH1 0x20 MUL PUSH1 0x20 ADD ADD MLOAD PUSH1 0x60 ADD MLOAD PUSH20 0xFFFFFFFFFFFFFFFFFFFFFFFFFFFFFFFFFFFFFFFF AND DUP2 MSTORE PUSH1 0x20 ADD DUP12 DUP5 DUP2 MLOAD DUP2 LT PUSH2 0x622 JUMPI INVALID JUMPDEST PUSH1 0x20 MUL PUSH1 0x20 ADD ADD MLOAD PUSH1 0x80 ADD MLOAD PUSH8 0xFFFFFFFFFFFFFFFF AND DUP2 MSTORE POP SWAP1 DUP1 PUSH1 0x1 DUP2 SLOAD ADD DUP1 DUP3 SSTORE DUP1 SWAP2 POP POP PUSH1 0x1 SWAP1 SUB SWAP1 PUSH1 0x0 MSTORE PUSH1 0x20 PUSH1 0x0 KECCAK256 ADD PUSH1 0x0 SWAP1 SWAP2 SWAP1 SWAP2 SWAP1 SWAP2 POP PUSH1 0x0 DUP3 ADD MLOAD DUP2 PUSH1 0x0 ADD PUSH1 0x0 PUSH2 0x100 EXP DUP2 SLOAD DUP2 PUSH20 0xFFFFFFFFFFFFFFFFFFFFFFFFFFFFFFFFFFFFFFFF MUL NOT AND SWAP1 DUP4 PUSH20 0xFFFFFFFFFFFFFFFFFFFFFFFFFFFFFFFFFFFFFFFF AND MUL OR SWAP1 SSTORE POP PUSH1 0x20 DUP3 ADD MLOAD DUP2 PUSH1 0x0 ADD PUSH1 0x14 PUSH2 0x100 EXP DUP2 SLOAD DUP2 PUSH8 0xFFFFFFFFFFFFFFFF MUL NOT AND SWAP1 DUP4 PUSH8 0xFFFFFFFFFFFFFFFF AND MUL OR SWAP1 SSTORE POP POP POP JUMPDEST PUSH2 0x6F9 DUP10 DUP3 DUP2 MLOAD DUP2 LT PUSH2 0x6E8 JUMPI INVALID JUMPDEST PUSH1 0x20 MUL PUSH1 0x20 ADD ADD MLOAD PUSH1 0x60 ADD MLOAD PUSH2 0xCF8 JUMP JUMPDEST SWAP2 POP PUSH1 0x0 DUP3 PUSH1 0x7 SIGNEXTEND SLT PUSH2 0x77F JUMPI DUP9 DUP2 DUP2 MLOAD DUP2 LT PUSH2 0x712 JUMPI INVALID JUMPDEST PUSH1 0x20 MUL PUSH1 0x20 ADD ADD MLOAD PUSH1 0x80 ADD MLOAD PUSH1 0x1 DUP4 PUSH1 0x7 SIGNEXTEND DUP2 SLOAD DUP2 LT PUSH2 0x72E JUMPI INVALID JUMPDEST SWAP1 PUSH1 0x0 MSTORE PUSH1 0x20 PUSH1 0x0 KECCAK256 ADD PUSH1 0x0 ADD PUSH1 0x14 DUP3 DUP3 DUP3 SWAP1 SLOAD SWAP1 PUSH2 0x100 EXP SWAP1 DIV PUSH8 0xFFFFFFFFFFFFFFFF AND ADD SWAP3 POP PUSH2 0x100 EXP DUP2 SLOAD DUP2 PUSH8 0xFFFFFFFFFFFFFFFF MUL NOT AND SWAP1 DUP4 PUSH8 0xFFFFFFFFFFFFFFFF AND MUL OR SWAP1 SSTORE POP PUSH2 0x882 JUMP JUMPDEST PUSH1 0x1 PUSH1 0x40 MLOAD DUP1 PUSH1 0x40 ADD PUSH1 0x40 MSTORE DUP1 DUP12 DUP5 DUP2 MLOAD DUP2 LT PUSH2 0x798 JUMPI INVALID JUMPDEST PUSH1 0x20 MUL PUSH1 0x20 ADD ADD MLOAD PUSH1 0x60 ADD MLOAD PUSH20 0xFFFFFFFFFFFFFFFFFFFFFFFFFFFFFFFFFFFFFFFF AND DUP2 MSTORE PUSH1 0x20 ADD DUP12 DUP5 DUP2 MLOAD DUP2 LT PUSH2 0x7CB JUMPI INVALID JUMPDEST PUSH1 0x20 MUL PUSH1 0x20 ADD ADD MLOAD PUSH1 0x80 ADD MLOAD PUSH8 0xFFFFFFFFFFFFFFFF AND DUP2 MSTORE POP SWAP1 DUP1 PUSH1 0x1 DUP2 SLOAD ADD DUP1 DUP3 SSTORE DUP1 SWAP2 POP POP PUSH1 0x1 SWAP1 SUB SWAP1 PUSH1 0x0 MSTORE PUSH1 0x20 PUSH1 0x0 KECCAK256 ADD PUSH1 0x0 SWAP1 SWAP2 SWAP1 SWAP2 SWAP1 SWAP2 POP PUSH1 0x0 DUP3 ADD MLOAD DUP2 PUSH1 0x0 ADD PUSH1 0x0 PUSH2 0x100 EXP DUP2 SLOAD DUP2 PUSH20 0xFFFFFFFFFFFFFFFFFFFFFFFFFFFFFFFFFFFFFFFF MUL NOT AND SWAP1 DUP4 PUSH20 0xFFFFFFFFFFFFFFFFFFFFFFFFFFFFFFFFFFFFFFFF AND MUL OR SWAP1 SSTORE POP PUSH1 0x20 DUP3 ADD MLOAD DUP2 PUSH1 0x0 ADD PUSH1 0x14 PUSH2 0x100 EXP DUP2 SLOAD DUP2 PUSH8 0xFFFFFFFFFFFFFFFF MUL NOT AND SWAP1 DUP4 PUSH8 0xFFFFFFFFFFFFFFFF AND MUL OR SWAP1 SSTORE POP POP POP JUMPDEST DUP1 DUP1 PUSH1 0x1 ADD SWAP2 POP POP PUSH2 0x36E JUMP JUMPDEST POP PUSH2 0x8A4 PUSH1 0x0 DUP1 PUSH1 0x1 PUSH1 0x0 DUP1 SLOAD SWAP1 POP SUB PUSH2 0xDC5 JUMP JUMPDEST PUSH2 0x8B8 PUSH1 0x1 PUSH1 0x0 PUSH1 0x1 DUP1 DUP1 SLOAD SWAP1 POP SUB PUSH2 0xDC5 JUMP JUMPDEST PUSH1 0x0 DUP1 SLOAD DUP1 PUSH1 0x20 MUL PUSH1 0x20 ADD PUSH1 0x40 MLOAD SWAP1 DUP2 ADD PUSH1 0x40 MSTORE DUP1 SWAP3 SWAP2 SWAP1 DUP2 DUP2 MSTORE PUSH1 0x20 ADD PUSH1 0x0 SWAP1 JUMPDEST DUP3 DUP3 LT ISZERO PUSH2 0x990 JUMPI DUP4 DUP3 SWAP1 PUSH1 0x0 MSTORE PUSH1 0x20 PUSH1 0x0 KECCAK256 ADD PUSH1 0x40 MLOAD DUP1 PUSH1 0x40 ADD PUSH1 0x40 MSTORE SWAP1 DUP2 PUSH1 0x0 DUP3 ADD PUSH1 0x0 SWAP1 SLOAD SWAP1 PUSH2 0x100 EXP SWAP1 DIV PUSH20 0xFFFFFFFFFFFFFFFFFFFFFFFFFFFFFFFFFFFFFFFF AND PUSH20 0xFFFFFFFFFFFFFFFFFFFFFFFFFFFFFFFFFFFFFFFF AND PUSH20 0xFFFFFFFFFFFFFFFFFFFFFFFFFFFFFFFFFFFFFFFF AND DUP2 MSTORE PUSH1 0x20 ADD PUSH1 0x0 DUP3 ADD PUSH1 0x14 SWAP1 SLOAD SWAP1 PUSH2 0x100 EXP SWAP1 DIV PUSH8 0xFFFFFFFFFFFFFFFF AND PUSH8 0xFFFFFFFFFFFFFFFF AND PUSH8 0xFFFFFFFFFFFFFFFF AND DUP2 MSTORE POP POP DUP2 MSTORE PUSH1 0x20 ADD SWAP1 PUSH1 0x1 ADD SWAP1 PUSH2 0x8DA JUMP JUMPDEST POP POP POP POP DUP7 PUSH2 0x100 ADD DUP2 SWAP1 MSTORE POP PUSH1 0x1 DUP1 SLOAD DUP1 PUSH1 0x20 MUL PUSH1 0x20 ADD PUSH1 0x40 MLOAD SWAP1 DUP2 ADD PUSH1 0x40 MSTORE DUP1 SWAP3 SWAP2 SWAP1 DUP2 DUP2 MSTORE PUSH1 0x20 ADD PUSH1 0x0 SWAP1 JUMPDEST DUP3 DUP3 LT ISZERO PUSH2 0xA75 JUMPI DUP4 DUP3 SWAP1 PUSH1 0x0 MSTORE PUSH1 0x20 PUSH1 0x0 KECCAK256 ADD PUSH1 0x40 MLOAD DUP1 PUSH1 0x40 ADD PUSH1 0x40 MSTORE SWAP1 DUP2 PUSH1 0x0 DUP3 ADD PUSH1 0x0 SWAP1 SLOAD SWAP1 PUSH2 0x100 EXP SWAP1 DIV PUSH20 0xFFFFFFFFFFFFFFFFFFFFFFFFFFFFFFFFFFFFFFFF AND PUSH20 0xFFFFFFFFFFFFFFFFFFFFFFFFFFFFFFFFFFFFFFFF AND PUSH20 0xFFFFFFFFFFFFFFFFFFFFFFFFFFFFFFFFFFFFFFFF AND DUP2 MSTORE PUSH1 0x20 ADD PUSH1 0x0 DUP3 ADD PUSH1 0x14 SWAP1 SLOAD SWAP1 PUSH2 0x100 EXP SWAP1 DIV PUSH8 0xFFFFFFFFFFFFFFFF AND PUSH8 0xFFFFFFFFFFFFFFFF AND PUSH8 0xFFFFFFFFFFFFFFFF AND DUP2 MSTORE POP POP DUP2 MSTORE PUSH1 0x20 ADD SWAP1 PUSH1 0x1 ADD SWAP1 PUSH2 0x9BF JUMP JUMPDEST POP POP POP POP DUP7 PUSH2 0x120 ADD DUP2 SWAP1 MSTORE POP DUP4 DUP7 PUSH2 0x140 ADD DUP2 DUP2 MSTORE POP POP PUSH1 0x0 PUSH1 0x40 MLOAD DUP1 PUSH1 0x40 ADD PUSH1 0x40 MSTORE DUP1 PUSH1 0x0 PUSH20 0xFFFFFFFFFFFFFFFFFFFFFFFFFFFFFFFFFFFFFFFF AND DUP2 MSTORE PUSH1 0x20 ADD PUSH1 0x0 PUSH8 0xFFFFFFFFFFFFFFFF AND DUP2 MSTORE POP SWAP1 POP PUSH1 0x1 PUSH8 0xFFFFFFFFFFFFFFFF DUP2 GT DUP1 ISZERO PUSH2 0xAE0 JUMPI PUSH1 0x0 DUP1 REVERT JUMPDEST POP PUSH1 0x40 MLOAD SWAP1 DUP1 DUP3 MSTORE DUP1 PUSH1 0x20 MUL PUSH1 0x20 ADD DUP3 ADD PUSH1 0x40 MSTORE DUP1 ISZERO PUSH2 0xB1A JUMPI DUP2 PUSH1 0x20 ADD JUMPDEST PUSH2 0xB07 PUSH2 0x1300 JUMP JUMPDEST DUP2 MSTORE PUSH1 0x20 ADD SWAP1 PUSH1 0x1 SWAP1 SUB SWAP1 DUP2 PUSH2 0xAFF JUMPI SWAP1 POP JUMPDEST POP DUP8 PUSH2 0x160 ADD DUP2 SWAP1 MSTORE POP DUP1 DUP8 PUSH2 0x160 ADD MLOAD PUSH1 0x0 DUP2 MLOAD DUP2 LT PUSH2 0xB37 JUMPI INVALID JUMPDEST PUSH1 0x20 MUL PUSH1 0x20 ADD ADD DUP2 SWAP1 MSTORE POP PUSH1 0x40 MLOAD DUP1 PUSH1 0x40 ADD PUSH1 0x40 MSTORE DUP1 PUSH1 0x4 PUSH1 0xFF AND DUP2 MSTORE PUSH1 0x20 ADD PUSH20 0xB26820EE0C9B1276AAC834CF457026A575DFCE84 PUSH20 0xFFFFFFFFFFFFFFFFFFFFFFFFFFFFFFFFFFFFFFFF AND DUP2 MSTORE POP DUP8 PUSH2 0x180 ADD DUP2 SWAP1 MSTORE POP PUSH1 0x1 DUP8 PUSH2 0x1A0 ADD SWAP1 PUSH1 0x3 SIGNEXTEND SWAP1 DUP2 PUSH1 0x3 SIGNEXTEND DUP2 MSTORE POP POP PUSH1 0x0 DUP1 PUSH2 0xBAF SWAP2 SWAP1 PUSH2 0x133A JUMP JUMPDEST PUSH1 0x1 PUSH1 0x0 PUSH2 0xBBD SWAP2 SWAP1 PUSH2 0x133A JUMP JUMPDEST DUP7 SWAP8 POP POP POP POP POP POP POP POP SWAP2 SWAP1 POP JUMP JUMPDEST PUSH1 0x0 DUP1 PUSH1 0xA SWAP1 POP PUSH1 0x0 DUP5 SWAP1 POP PUSH1 0x8 DUP5 PUSH1 0xFF AND GT ISZERO PUSH2 0xBFA JUMPI PUSH1 0x8 DUP5 SUB SWAP2 POP DUP2 PUSH1 0xFF AND PUSH1 0xA EXP DUP6 MUL SWAP1 POP PUSH2 0xC20 JUMP JUMPDEST PUSH1 0x8 DUP5 PUSH1 0xFF AND LT ISZERO PUSH2 0xC1F JUMPI DUP4 PUSH1 0x8 SUB SWAP2 POP DUP2 PUSH1 0xFF AND PUSH1 0xA EXP DUP6 DUP2 PUSH2 0xC1B JUMPI INVALID JUMPDEST DIV SWAP1 POP JUMPDEST JUMPDEST DUP1 SWAP3 POP POP POP SWAP3 SWAP2 POP POP JUMP JUMPDEST PUSH1 0x0 DUP1 PUSH1 0x0 SWAP1 POP JUMPDEST PUSH1 0x0 DUP1 SLOAD SWAP1 POP PUSH8 0xFFFFFFFFFFFFFFFF AND DUP2 LT ISZERO PUSH2 0xCCE JUMPI DUP3 PUSH20 0xFFFFFFFFFFFFFFFFFFFFFFFFFFFFFFFFFFFFFFFF AND PUSH1 0x0 DUP3 DUP2 SLOAD DUP2 LT PUSH2 0xC6E JUMPI INVALID JUMPDEST SWAP1 PUSH1 0x0 MSTORE PUSH1 0x20 PUSH1 0x0 KECCAK256 ADD PUSH1 0x0 ADD PUSH1 0x0 SWAP1 SLOAD SWAP1 PUSH2 0x100 EXP SWAP1 DIV PUSH20 0xFFFFFFFFFFFFFFFFFFFFFFFFFFFFFFFFFFFFFFFF AND PUSH20 0xFFFFFFFFFFFFFFFFFFFFFFFFFFFFFFFFFFFFFFFF AND EQ ISZERO PUSH2 0xCC1 JUMPI DUP1 SWAP2 POP POP PUSH2 0xCF3 JUMP JUMPDEST DUP1 DUP1 PUSH1 0x1 ADD SWAP2 POP POP PUSH2 0xC33 JUMP JUMPDEST POP PUSH32 0xFFFFFFFFFFFFFFFFFFFFFFFFFFFFFFFFFFFFFFFFFFFFFFFFFFFFFFFFFFFFFFFF SWAP1 POP JUMPDEST SWAP2 SWAP1 POP JUMP JUMPDEST PUSH1 0x0 DUP1 PUSH1 0x0 SWAP1 POP JUMPDEST PUSH1 0x1 DUP1 SLOAD SWAP1 POP PUSH8 0xFFFFFFFFFFFFFFFF AND DUP2 LT ISZERO PUSH2 0xD9B JUMPI DUP3 PUSH20 0xFFFFFFFFFFFFFFFFFFFFFFFFFFFFFFFFFFFFFFFF AND PUSH1 0x1 DUP3 DUP2 SLOAD DUP2 LT PUSH2 0xD3B JUMPI INVALID JUMPDEST SWAP1 PUSH1 0x0 MSTORE PUSH1 0x20 PUSH1 0x0 KECCAK256 ADD PUSH1 0x0 ADD PUSH1 0x0 SWAP1 SLOAD SWAP1 PUSH2 0x100 EXP SWAP1 DIV PUSH20 0xFFFFFFFFFFFFFFFFFFFFFFFFFFFFFFFFFFFFFFFF AND PUSH20 0xFFFFFFFFFFFFFFFFFFFFFFFFFFFFFFFFFFFFFFFF AND EQ ISZERO PUSH2 0xD8E JUMPI DUP1 SWAP2 POP POP PUSH2 0xDC0 JUMP JUMPDEST DUP1 DUP1 PUSH1 0x1 ADD SWAP2 POP POP PUSH2 0xD00 JUMP JUMPDEST POP PUSH32 0xFFFFFFFFFFFFFFFFFFFFFFFFFFFFFFFFFFFFFFFFFFFFFFFFFFFFFFFFFFFFFFFF SWAP1 POP JUMPDEST SWAP2 SWAP1 POP JUMP JUMPDEST PUSH1 0x0 DUP3 SWAP1 POP PUSH1 0x0 DUP3 SWAP1 POP DUP1 DUP3 EQ ISZERO PUSH2 0xDDE JUMPI POP POP PUSH2 0x1224 JUMP JUMPDEST PUSH1 0x0 DUP6 PUSH1 0x2 DUP7 DUP7 SUB DUP2 PUSH2 0xDED JUMPI INVALID JUMPDEST SDIV DUP7 ADD PUSH20 0xFFFFFFFFFFFFFFFFFFFFFFFFFFFFFFFFFFFFFFFF AND DUP2 SLOAD DUP2 LT PUSH2 0xE10 JUMPI INVALID JUMPDEST SWAP1 PUSH1 0x0 MSTORE PUSH1 0x20 PUSH1 0x0 KECCAK256 ADD PUSH1 0x0 ADD PUSH1 0x0 SWAP1 SLOAD SWAP1 PUSH2 0x100 EXP SWAP1 DIV PUSH20 0xFFFFFFFFFFFFFFFFFFFFFFFFFFFFFFFFFFFFFFFF AND SWAP1 POP JUMPDEST DUP2 DUP4 SGT PUSH2 0x11F8 JUMPI JUMPDEST DUP1 PUSH20 0xFFFFFFFFFFFFFFFFFFFFFFFFFFFFFFFFFFFFFFFF AND DUP7 DUP5 PUSH20 0xFFFFFFFFFFFFFFFFFFFFFFFFFFFFFFFFFFFFFFFF AND DUP2 SLOAD DUP2 LT PUSH2 0xE82 JUMPI INVALID JUMPDEST SWAP1 PUSH1 0x0 MSTORE PUSH1 0x20 PUSH1 0x0 KECCAK256 ADD PUSH1 0x0 ADD PUSH1 0x0 SWAP1 SLOAD SWAP1 PUSH2 0x100 EXP SWAP1 DIV PUSH20 0xFFFFFFFFFFFFFFFFFFFFFFFFFFFFFFFFFFFFFFFF AND PUSH20 0xFFFFFFFFFFFFFFFFFFFFFFFFFFFFFFFFFFFFFFFF AND LT ISZERO PUSH2 0xED9 JUMPI DUP3 DUP1 PUSH1 0x1 ADD SWAP4 POP POP PUSH2 0xE49 JUMP JUMPDEST JUMPDEST DUP6 DUP3 PUSH20 0xFFFFFFFFFFFFFFFFFFFFFFFFFFFFFFFFFFFFFFFF AND DUP2 SLOAD DUP2 LT PUSH2 0xEFC JUMPI INVALID JUMPDEST SWAP1 PUSH1 0x0 MSTORE PUSH1 0x20 PUSH1 0x0 KECCAK256 ADD PUSH1 0x0 ADD PUSH1 0x0 SWAP1 SLOAD SWAP1 PUSH2 0x100 EXP SWAP1 DIV PUSH20 0xFFFFFFFFFFFFFFFFFFFFFFFFFFFFFFFFFFFFFFFF AND PUSH20 0xFFFFFFFFFFFFFFFFFFFFFFFFFFFFFFFFFFFFFFFF AND DUP2 PUSH20 0xFFFFFFFFFFFFFFFFFFFFFFFFFFFFFFFFFFFFFFFF AND LT ISZERO PUSH2 0xF6B JUMPI DUP2 DUP1 PUSH1 0x1 SWAP1 SUB SWAP3 POP POP PUSH2 0xEDA JUMP JUMPDEST DUP2 DUP4 SGT PUSH2 0x11F3 JUMPI PUSH1 0x0 DUP7 DUP5 PUSH20 0xFFFFFFFFFFFFFFFFFFFFFFFFFFFFFFFFFFFFFFFF AND DUP2 SLOAD DUP2 LT PUSH2 0xF96 JUMPI INVALID JUMPDEST SWAP1 PUSH1 0x0 MSTORE PUSH1 0x20 PUSH1 0x0 KECCAK256 ADD PUSH1 0x40 MLOAD DUP1 PUSH1 0x40 ADD PUSH1 0x40 MSTORE SWAP1 DUP2 PUSH1 0x0 DUP3 ADD PUSH1 0x0 SWAP1 SLOAD SWAP1 PUSH2 0x100 EXP SWAP1 DIV PUSH20 0xFFFFFFFFFFFFFFFFFFFFFFFFFFFFFFFFFFFFFFFF AND PUSH20 0xFFFFFFFFFFFFFFFFFFFFFFFFFFFFFFFFFFFFFFFF AND PUSH20 0xFFFFFFFFFFFFFFFFFFFFFFFFFFFFFFFFFFFFFFFF AND DUP2 MSTORE PUSH1 0x20 ADD PUSH1 0x0 DUP3 ADD PUSH1 0x14 SWAP1 SLOAD SWAP1 PUSH2 0x100 EXP SWAP1 DIV PUSH8 0xFFFFFFFFFFFFFFFF AND PUSH8 0xFFFFFFFFFFFFFFFF AND PUSH8 0xFFFFFFFFFFFFFFFF AND DUP2 MSTORE POP POP SWAP1 POP DUP7 DUP4 PUSH20 0xFFFFFFFFFFFFFFFFFFFFFFFFFFFFFFFFFFFFFFFF AND DUP2 SLOAD DUP2 LT PUSH2 0x1057 JUMPI INVALID JUMPDEST SWAP1 PUSH1 0x0 MSTORE PUSH1 0x20 PUSH1 0x0 KECCAK256 ADD DUP8 DUP6 PUSH20 0xFFFFFFFFFFFFFFFFFFFFFFFFFFFFFFFFFFFFFFFF AND DUP2 SLOAD DUP2 LT PUSH2 0x1083 JUMPI INVALID JUMPDEST SWAP1 PUSH1 0x0 MSTORE PUSH1 0x20 PUSH1 0x0 KECCAK256 ADD PUSH1 0x0 DUP3 ADD PUSH1 0x0 SWAP1 SLOAD SWAP1 PUSH2 0x100 EXP SWAP1 DIV PUSH20 0xFFFFFFFFFFFFFFFFFFFFFFFFFFFFFFFFFFFFFFFF AND DUP2 PUSH1 0x0 ADD PUSH1 0x0 PUSH2 0x100 EXP DUP2 SLOAD DUP2 PUSH20 0xFFFFFFFFFFFFFFFFFFFFFFFFFFFFFFFFFFFFFFFF MUL NOT AND SWAP1 DUP4 PUSH20 0xFFFFFFFFFFFFFFFFFFFFFFFFFFFFFFFFFFFFFFFF AND MUL OR SWAP1 SSTORE POP PUSH1 0x0 DUP3 ADD PUSH1 0x14 SWAP1 SLOAD SWAP1 PUSH2 0x100 EXP SWAP1 DIV PUSH8 0xFFFFFFFFFFFFFFFF AND DUP2 PUSH1 0x0 ADD PUSH1 0x14 PUSH2 0x100 EXP DUP2 SLOAD DUP2 PUSH8 0xFFFFFFFFFFFFFFFF MUL NOT AND SWAP1 DUP4 PUSH8 0xFFFFFFFFFFFFFFFF AND MUL OR SWAP1 SSTORE POP SWAP1 POP POP DUP1 DUP8 DUP5 PUSH20 0xFFFFFFFFFFFFFFFFFFFFFFFFFFFFFFFFFFFFFFFF AND DUP2 SLOAD DUP2 LT PUSH2 0x115D JUMPI INVALID JUMPDEST SWAP1 PUSH1 0x0 MSTORE PUSH1 0x20 PUSH1 0x0 KECCAK256 ADD PUSH1 0x0 DUP3 ADD MLOAD DUP2 PUSH1 0x0 ADD PUSH1 0x0 PUSH2 0x100 EXP DUP2 SLOAD DUP2 PUSH20 0xFFFFFFFFFFFFFFFFFFFFFFFFFFFFFFFFFFFFFFFF MUL NOT AND SWAP1 DUP4 PUSH20 0xFFFFFFFFFFFFFFFFFFFFFFFFFFFFFFFFFFFFFFFF AND MUL OR SWAP1 SSTORE POP PUSH1 0x20 DUP3 ADD MLOAD DUP2 PUSH1 0x0 ADD PUSH1 0x14 PUSH2 0x100 EXP DUP2 SLOAD DUP2 PUSH8 0xFFFFFFFFFFFFFFFF MUL NOT AND SWAP1 DUP4 PUSH8 0xFFFFFFFFFFFFFFFF AND MUL OR SWAP1 SSTORE POP SWAP1 POP POP DUP4 DUP1 PUSH1 0x1 ADD SWAP5 POP POP DUP3 DUP1 PUSH1 0x1 SWAP1 SUB SWAP4 POP POP POP JUMPDEST PUSH2 0xE41 JUMP JUMPDEST DUP2 DUP6 SLT ISZERO PUSH2 0x120C JUMPI PUSH2 0x120B DUP7 DUP7 DUP5 PUSH2 0xDC5 JUMP JUMPDEST JUMPDEST DUP4 DUP4 SLT ISZERO PUSH2 0x1220 JUMPI PUSH2 0x121F DUP7 DUP5 DUP7 PUSH2 0xDC5 JUMP JUMPDEST JUMPDEST POP POP POP JUMPDEST POP POP POP JUMP JUMPDEST PUSH1 0x40 MLOAD DUP1 PUSH2 0x1C0 ADD PUSH1 0x40 MSTORE DUP1 PUSH1 0x0 PUSH2 0xFFFF AND DUP2 MSTORE PUSH1 0x20 ADD PUSH1 0x0 PUSH2 0xFFFF AND DUP2 MSTORE PUSH1 0x20 ADD PUSH1 0x0 PUSH20 0xFFFFFFFFFFFFFFFFFFFFFFFFFFFFFFFFFFFFFFFF AND DUP2 MSTORE PUSH1 0x20 ADD PUSH1 0x0 PUSH4 0xFFFFFFFF AND DUP2 MSTORE PUSH1 0x20 ADD PUSH1 0x0 PUSH4 0xFFFFFFFF AND DUP2 MSTORE PUSH1 0x20 ADD PUSH1 0x0 PUSH20 0xFFFFFFFFFFFFFFFFFFFFFFFFFFFFFFFFFFFFFFFF AND DUP2 MSTORE PUSH1 0x20 ADD PUSH1 0x0 PUSH20 0xFFFFFFFFFFFFFFFFFFFFFFFFFFFFFFFFFFFFFFFF AND DUP2 MSTORE PUSH1 0x20 ADD PUSH1 0x0 PUSH4 0xFFFFFFFF AND DUP2 MSTORE PUSH1 0x20 ADD PUSH1 0x60 DUP2 MSTORE PUSH1 0x20 ADD PUSH1 0x60 DUP2 MSTORE PUSH1 0x20 ADD PUSH1 0x0 DUP1 NOT AND DUP2 MSTORE PUSH1 0x20 ADD PUSH1 0x60 DUP2 MSTORE PUSH1 0x20 ADD PUSH2 0x12F0 PUSH2 0x135B JUMP JUMPDEST DUP2 MSTORE PUSH1 0x20 ADD PUSH1 0x0 PUSH1 0x3 SIGNEXTEND DUP2 MSTORE POP SWAP1 JUMP JUMPDEST PUSH1 0x40 MLOAD DUP1 PUSH1 0x40 ADD PUSH1 0x40 MSTORE DUP1 PUSH1 0x0 PUSH20 0xFFFFFFFFFFFFFFFFFFFFFFFFFFFFFFFFFFFFFFFF AND DUP2 MSTORE PUSH1 0x20 ADD PUSH1 0x0 PUSH8 0xFFFFFFFFFFFFFFFF AND DUP2 MSTORE POP SWAP1 JUMP JUMPDEST POP DUP1 SLOAD PUSH1 0x0 DUP3 SSTORE SWAP1 PUSH1 0x0 MSTORE PUSH1 0x20 PUSH1 0x0 KECCAK256 SWAP1 DUP2 ADD SWAP1 PUSH2 0x1358 SWAP2 SWAP1 PUSH2 0x138E JUMP JUMPDEST POP JUMP JUMPDEST PUSH1 0x40 MLOAD DUP1 PUSH1 0x40 ADD PUSH1 0x40 MSTORE DUP1 PUSH1 0x0 PUSH1 0xFF AND DUP2 MSTORE PUSH1 0x20 ADD PUSH1 0x0 PUSH20 0xFFFFFFFFFFFFFFFFFFFFFFFFFFFFFFFFFFFFFFFF AND DUP2 MSTORE POP SWAP1 JUMP JUMPDEST JUMPDEST DUP1 DUP3 GT ISZERO PUSH2 0x13E3 JUMPI PUSH1 0x0 DUP1 DUP3 ADD PUSH1 0x0 PUSH2 0x100 EXP DUP2 SLOAD SWAP1 PUSH20 0xFFFFFFFFFFFFFFFFFFFFFFFFFFFFFFFFFFFFFFFF MUL NOT AND SWAP1 SSTORE PUSH1 0x0 DUP3 ADD PUSH1 0x14 PUSH2 0x100 EXP DUP2 SLOAD SWAP1 PUSH8 0xFFFFFFFFFFFFFFFF MUL NOT AND SWAP1 SSTORE POP PUSH1 0x1 ADD PUSH2 0x138F JUMP JUMPDEST POP SWAP1 JUMP JUMPDEST PUSH1 0x0 PUSH2 0x13FA PUSH2 0x13F5 DUP5 PUSH2 0x1BF8 JUMP JUMPDEST PUSH2 0x1BC7 JUMP JUMPDEST SWAP1 POP DUP1 DUP4 DUP3 MSTORE PUSH1 0x20 DUP3 ADD SWAP1 POP DUP3 DUP6 PUSH2 0x160 DUP7 MUL DUP3 ADD GT ISZERO PUSH2 0x141A JUMPI PUSH1 0x0 DUP1 REVERT JUMPDEST PUSH1 0x0 JUMPDEST DUP6 DUP2 LT ISZERO PUSH2 0x144B JUMPI DUP2 PUSH2 0x1430 DUP9 DUP3 PUSH2 0x1548 JUMP JUMPDEST DUP5 MSTORE PUSH1 0x20 DUP5 ADD SWAP4 POP PUSH2 0x160 DUP4 ADD SWAP3 POP POP PUSH1 0x1 DUP2 ADD SWAP1 POP PUSH2 0x141D JUMP JUMPDEST POP POP POP SWAP4 SWAP3 POP POP POP JUMP JUMPDEST PUSH1 0x0 PUSH2 0x1468 PUSH2 0x1463 DUP5 PUSH2 0x1C24 JUMP JUMPDEST PUSH2 0x1BC7 JUMP JUMPDEST SWAP1 POP DUP3 DUP2 MSTORE PUSH1 0x20 DUP2 ADD DUP5 DUP5 DUP5 ADD GT ISZERO PUSH2 0x1480 JUMPI PUSH1 0x0 DUP1 REVERT JUMPDEST PUSH2 0x148B DUP5 DUP3 DUP6 PUSH2 0x1D64 JUMP JUMPDEST POP SWAP4 SWAP3 POP POP POP JUMP JUMPDEST PUSH1 0x0 DUP2 CALLDATALOAD SWAP1 POP PUSH2 0x14A2 DUP2 PUSH2 0x1D99 JUMP JUMPDEST SWAP3 SWAP2 POP POP JUMP JUMPDEST PUSH1 0x0 DUP3 PUSH1 0x1F DUP4 ADD SLT PUSH2 0x14B9 JUMPI PUSH1 0x0 DUP1 REVERT JUMPDEST DUP2 CALLDATALOAD PUSH2 0x14C9 DUP5 DUP3 PUSH1 0x20 DUP7 ADD PUSH2 0x13E7 JUMP JUMPDEST SWAP2 POP POP SWAP3 SWAP2 POP POP JUMP JUMPDEST PUSH1 0x0 DUP3 PUSH1 0x1F DUP4 ADD SLT PUSH2 0x14E3 JUMPI PUSH1 0x0 DUP1 REVERT JUMPDEST DUP2 MLOAD PUSH2 0x14F3 DUP5 DUP3 PUSH1 0x20 DUP7 ADD PUSH2 0x1455 JUMP JUMPDEST SWAP2 POP POP SWAP3 SWAP2 POP POP JUMP JUMPDEST PUSH1 0x0 PUSH1 0x40 DUP3 DUP5 SUB SLT ISZERO PUSH2 0x150E JUMPI PUSH1 0x0 DUP1 REVERT JUMPDEST PUSH2 0x1518 PUSH1 0x40 PUSH2 0x1BC7 JUMP JUMPDEST SWAP1 POP PUSH1 0x0 PUSH2 0x1528 DUP5 DUP3 DUP6 ADD PUSH2 0x1493 JUMP JUMPDEST PUSH1 0x0 DUP4 ADD MSTORE POP PUSH1 0x20 PUSH2 0x153C DUP5 DUP3 DUP6 ADD PUSH2 0x169C JUMP JUMPDEST PUSH1 0x20 DUP4 ADD MSTORE POP SWAP3 SWAP2 POP POP JUMP JUMPDEST PUSH1 0x0 PUSH2 0x160 DUP3 DUP5 SUB SLT ISZERO PUSH2 0x155B JUMPI PUSH1 0x0 DUP1 REVERT JUMPDEST PUSH2 0x1566 PUSH2 0x120 PUSH2 0x1BC7 JUMP JUMPDEST SWAP1 POP PUSH1 0x0 PUSH2 0x1576 DUP5 DUP3 DUP6 ADD PUSH2 0x1687 JUMP JUMPDEST PUSH1 0x0 DUP4 ADD MSTORE POP PUSH1 0x20 PUSH2 0x158A DUP5 DUP3 DUP6 ADD PUSH2 0x14FC JUMP JUMPDEST PUSH1 0x20 DUP4 ADD MSTORE POP PUSH1 0x60 PUSH2 0x159E DUP5 DUP3 DUP6 ADD PUSH2 0x1687 JUMP JUMPDEST PUSH1 0x40 DUP4 ADD MSTORE POP PUSH1 0x80 PUSH2 0x15B2 DUP5 DUP3 DUP6 ADD PUSH2 0x1493 JUMP JUMPDEST PUSH1 0x60 DUP4 ADD MSTORE POP PUSH1 0xA0 PUSH2 0x15C6 DUP5 DUP3 DUP6 ADD PUSH2 0x1672 JUMP JUMPDEST PUSH1 0x80 DUP4 ADD MSTORE POP PUSH1 0xC0 PUSH2 0x15DA DUP5 DUP3 DUP6 ADD PUSH2 0x1626 JUMP JUMPDEST PUSH1 0xA0 DUP4 ADD MSTORE POP PUSH2 0x100 PUSH2 0x15EF DUP5 DUP3 DUP6 ADD PUSH2 0x1493 JUMP JUMPDEST PUSH1 0xC0 DUP4 ADD MSTORE POP PUSH2 0x120 PUSH2 0x1604 DUP5 DUP3 DUP6 ADD PUSH2 0x1493 JUMP JUMPDEST PUSH1 0xE0 DUP4 ADD MSTORE POP PUSH2 0x140 PUSH2 0x1619 DUP5 DUP3 DUP6 ADD PUSH2 0x1493 JUMP JUMPDEST PUSH2 0x100 DUP4 ADD MSTORE POP SWAP3 SWAP2 POP POP JUMP JUMPDEST PUSH1 0x0 PUSH1 0x40 DUP3 DUP5 SUB SLT ISZERO PUSH2 0x1638 JUMPI PUSH1 0x0 DUP1 REVERT JUMPDEST PUSH2 0x1642 PUSH1 0x40 PUSH2 0x1BC7 JUMP JUMPDEST SWAP1 POP PUSH1 0x0 PUSH2 0x1652 DUP5 DUP3 DUP6 ADD PUSH2 0x16B1 JUMP JUMPDEST PUSH1 0x0 DUP4 ADD MSTORE POP PUSH1 0x20 PUSH2 0x1666 DUP5 DUP3 DUP6 ADD PUSH2 0x1493 JUMP JUMPDEST PUSH1 0x20 DUP4 ADD MSTORE POP SWAP3 SWAP2 POP POP JUMP JUMPDEST PUSH1 0x0 DUP2 CALLDATALOAD SWAP1 POP PUSH2 0x1681 DUP2 PUSH2 0x1DB0 JUMP JUMPDEST SWAP3 SWAP2 POP POP JUMP JUMPDEST PUSH1 0x0 DUP2 CALLDATALOAD SWAP1 POP PUSH2 0x1696 DUP2 PUSH2 0x1DC7 JUMP JUMPDEST SWAP3 SWAP2 POP POP JUMP JUMPDEST PUSH1 0x0 DUP2 CALLDATALOAD SWAP1 POP PUSH2 0x16AB DUP2 PUSH2 0x1DDE JUMP JUMPDEST SWAP3 SWAP2 POP POP JUMP JUMPDEST PUSH1 0x0 DUP2 CALLDATALOAD SWAP1 POP PUSH2 0x16C0 DUP2 PUSH2 0x1DF5 JUMP JUMPDEST SWAP3 SWAP2 POP POP JUMP JUMPDEST PUSH1 0x0 PUSH1 0x20 DUP3 DUP5 SUB SLT ISZERO PUSH2 0x16D8 JUMPI PUSH1 0x0 DUP1 REVERT JUMPDEST PUSH1 0x0 DUP3 ADD CALLDATALOAD PUSH8 0xFFFFFFFFFFFFFFFF DUP2 GT ISZERO PUSH2 0x16F2 JUMPI PUSH1 0x0 DUP1 REVERT JUMPDEST PUSH2 0x16FE DUP5 DUP3 DUP6 ADD PUSH2 0x14A8 JUMP JUMPDEST SWAP2 POP POP SWAP3 SWAP2 POP POP JUMP JUMPDEST PUSH1 0x0 PUSH1 0x20 DUP3 DUP5 SUB SLT ISZERO PUSH2 0x1719 JUMPI PUSH1 0x0 DUP1 REVERT JUMPDEST PUSH1 0x0 DUP3 ADD MLOAD PUSH8 0xFFFFFFFFFFFFFFFF DUP2 GT ISZERO PUSH2 0x1733 JUMPI PUSH1 0x0 DUP1 REVERT JUMPDEST PUSH2 0x173F DUP5 DUP3 DUP6 ADD PUSH2 0x14D2 JUMP JUMPDEST SWAP2 POP POP SWAP3 SWAP2 POP POP JUMP JUMPDEST PUSH1 0x0 DUP1 PUSH1 0x40 DUP4 DUP6 SUB SLT ISZERO PUSH2 0x175B JUMPI PUSH1 0x0 DUP1 REVERT JUMPDEST PUSH1 0x0 PUSH2 0x1769 DUP6 DUP3 DUP7 ADD PUSH2 0x1672 JUMP JUMPDEST SWAP3 POP POP PUSH1 0x20 PUSH2 0x177A DUP6 DUP3 DUP7 ADD PUSH2 0x16B1 JUMP JUMPDEST SWAP2 POP POP SWAP3 POP SWAP3 SWAP1 POP JUMP JUMPDEST PUSH1 0x0 PUSH2 0x1790 DUP4 DUP4 PUSH2 0x19E9 JUMP JUMPDEST PUSH1 0x40 DUP4 ADD SWAP1 POP SWAP3 SWAP2 POP POP JUMP JUMPDEST PUSH1 0x0 PUSH2 0x17A8 DUP4 DUP4 PUSH2 0x1A18 JUMP JUMPDEST PUSH2 0x160 DUP4 ADD SWAP1 POP SWAP3 SWAP2 POP POP JUMP JUMPDEST PUSH2 0x17BE DUP2 PUSH2 0x1CC6 JUMP JUMPDEST DUP3 MSTORE POP POP JUMP JUMPDEST PUSH1 0x0 PUSH2 0x17CF DUP3 PUSH2 0x1C74 JUMP JUMPDEST PUSH2 0x17D9 DUP2 DUP6 PUSH2 0x1CA4 JUMP JUMPDEST SWAP4 POP PUSH2 0x17E4 DUP4 PUSH2 0x1C54 JUMP JUMPDEST DUP1 PUSH1 0x0 JUMPDEST DUP4 DUP2 LT ISZERO PUSH2 0x1815 JUMPI DUP2 MLOAD PUSH2 0x17FC DUP9 DUP3 PUSH2 0x1784 JUMP JUMPDEST SWAP8 POP PUSH2 0x1807 DUP4 PUSH2 0x1C8A JUMP JUMPDEST SWAP3 POP POP PUSH1 0x1 DUP2 ADD SWAP1 POP PUSH2 0x17E8 JUMP JUMPDEST POP DUP6 SWAP4 POP POP POP POP SWAP3 SWAP2 POP POP JUMP JUMPDEST PUSH1 0x0 PUSH2 0x182D DUP3 PUSH2 0x1C7F JUMP JUMPDEST PUSH2 0x1837 DUP2 DUP6 PUSH2 0x1CB5 JUMP JUMPDEST SWAP4 POP PUSH2 0x1842 DUP4 PUSH2 0x1C64 JUMP JUMPDEST DUP1 PUSH1 0x0 JUMPDEST DUP4 DUP2 LT ISZERO PUSH2 0x1873 JUMPI DUP2 MLOAD PUSH2 0x185A DUP9 DUP3 PUSH2 0x179C JUMP JUMPDEST SWAP8 POP PUSH2 0x1865 DUP4 PUSH2 0x1C97 JUMP JUMPDEST SWAP3 POP POP PUSH1 0x1 DUP2 ADD SWAP1 POP PUSH2 0x1846 JUMP JUMPDEST POP DUP6 SWAP4 POP POP POP POP SWAP3 SWAP2 POP POP JUMP JUMPDEST PUSH2 0x1889 DUP2 PUSH2 0x1CD8 JUMP JUMPDEST DUP3 MSTORE POP POP JUMP JUMPDEST PUSH2 0x1898 DUP2 PUSH2 0x1CE4 JUMP JUMPDEST DUP3 MSTORE POP POP JUMP JUMPDEST PUSH2 0x18A7 DUP2 PUSH2 0x1CEE JUMP JUMPDEST DUP3 MSTORE POP POP JUMP JUMPDEST PUSH1 0x0 PUSH2 0x1E0 DUP4 ADD PUSH1 0x0 DUP4 ADD MLOAD PUSH2 0x18C6 PUSH1 0x0 DUP7 ADD DUP3 PUSH2 0x1B00 JUMP JUMPDEST POP PUSH1 0x20 DUP4 ADD MLOAD PUSH2 0x18D9 PUSH1 0x20 DUP7 ADD DUP3 PUSH2 0x1B00 JUMP JUMPDEST POP PUSH1 0x40 DUP4 ADD MLOAD PUSH2 0x18EC PUSH1 0x40 DUP7 ADD DUP3 PUSH2 0x17B5 JUMP JUMPDEST POP PUSH1 0x60 DUP4 ADD MLOAD PUSH2 0x18FF PUSH1 0x60 DUP7 ADD DUP3 PUSH2 0x1B2D JUMP JUMPDEST POP PUSH1 0x80 DUP4 ADD MLOAD PUSH2 0x1912 PUSH1 0x80 DUP7 ADD DUP3 PUSH2 0x1B2D JUMP JUMPDEST POP PUSH1 0xA0 DUP4 ADD MLOAD PUSH2 0x1925 PUSH1 0xA0 DUP7 ADD DUP3 PUSH2 0x17B5 JUMP JUMPDEST POP PUSH1 0xC0 DUP4 ADD MLOAD PUSH2 0x1938 PUSH1 0xC0 DUP7 ADD DUP3 PUSH2 0x17B5 JUMP JUMPDEST POP PUSH1 0xE0 DUP4 ADD MLOAD PUSH2 0x194B PUSH1 0xE0 DUP7 ADD DUP3 PUSH2 0x1B2D JUMP JUMPDEST POP PUSH2 0x100 DUP4 ADD MLOAD DUP5 DUP3 SUB PUSH2 0x100 DUP7 ADD MSTORE PUSH2 0x1965 DUP3 DUP3 PUSH2 0x17C4 JUMP JUMPDEST SWAP2 POP POP PUSH2 0x120 DUP4 ADD MLOAD DUP5 DUP3 SUB PUSH2 0x120 DUP7 ADD MSTORE PUSH2 0x1981 DUP3 DUP3 PUSH2 0x17C4 JUMP JUMPDEST SWAP2 POP POP PUSH2 0x140 DUP4 ADD MLOAD PUSH2 0x1998 PUSH2 0x140 DUP7 ADD DUP3 PUSH2 0x188F JUMP JUMPDEST POP PUSH2 0x160 DUP4 ADD MLOAD DUP5 DUP3 SUB PUSH2 0x160 DUP7 ADD MSTORE PUSH2 0x19B2 DUP3 DUP3 PUSH2 0x17C4 JUMP JUMPDEST SWAP2 POP POP PUSH2 0x180 DUP4 ADD MLOAD PUSH2 0x19C9 PUSH2 0x180 DUP7 ADD DUP3 PUSH2 0x1AD1 JUMP JUMPDEST POP PUSH2 0x1A0 DUP4 ADD MLOAD PUSH2 0x19DE PUSH2 0x1C0 DUP7 ADD DUP3 PUSH2 0x189E JUMP JUMPDEST POP DUP1 SWAP2 POP POP SWAP3 SWAP2 POP POP JUMP JUMPDEST PUSH1 0x40 DUP3 ADD PUSH1 0x0 DUP3 ADD MLOAD PUSH2 0x19FF PUSH1 0x0 DUP6 ADD DUP3 PUSH2 0x17B5 JUMP JUMPDEST POP PUSH1 0x20 DUP3 ADD MLOAD PUSH2 0x1A12 PUSH1 0x20 DUP6 ADD DUP3 PUSH2 0x1B3C JUMP JUMPDEST POP POP POP POP JUMP JUMPDEST PUSH2 0x160 DUP3 ADD PUSH1 0x0 DUP3 ADD MLOAD PUSH2 0x1A2F PUSH1 0x0 DUP6 ADD DUP3 PUSH2 0x1B2D JUMP JUMPDEST POP PUSH1 0x20 DUP3 ADD MLOAD PUSH2 0x1A42 PUSH1 0x20 DUP6 ADD DUP3 PUSH2 0x19E9 JUMP JUMPDEST POP PUSH1 0x40 DUP3 ADD MLOAD PUSH2 0x1A55 PUSH1 0x60 DUP6 ADD DUP3 PUSH2 0x1B2D JUMP JUMPDEST POP PUSH1 0x60 DUP3 ADD MLOAD PUSH2 0x1A68 PUSH1 0x80 DUP6 ADD DUP3 PUSH2 0x17B5 JUMP JUMPDEST POP PUSH1 0x80 DUP3 ADD MLOAD PUSH2 0x1A7B PUSH1 0xA0 DUP6 ADD DUP3 PUSH2 0x1B0F JUMP JUMPDEST POP PUSH1 0xA0 DUP3 ADD MLOAD PUSH2 0x1A8E PUSH1 0xC0 DUP6 ADD DUP3 PUSH2 0x1AD1 JUMP JUMPDEST POP PUSH1 0xC0 DUP3 ADD MLOAD PUSH2 0x1AA2 PUSH2 0x100 DUP6 ADD DUP3 PUSH2 0x17B5 JUMP JUMPDEST POP PUSH1 0xE0 DUP3 ADD MLOAD PUSH2 0x1AB6 PUSH2 0x120 DUP6 ADD DUP3 PUSH2 0x17B5 JUMP JUMPDEST POP PUSH2 0x100 DUP3 ADD MLOAD PUSH2 0x1ACB PUSH2 0x140 DUP6 ADD DUP3 PUSH2 0x17B5 JUMP JUMPDEST POP POP POP POP JUMP JUMPDEST PUSH1 0x40 DUP3 ADD PUSH1 0x0 DUP3 ADD MLOAD PUSH2 0x1AE7 PUSH1 0x0 DUP6 ADD DUP3 PUSH2 0x1B4B JUMP JUMPDEST POP PUSH1 0x20 DUP3 ADD MLOAD PUSH2 0x1AFA PUSH1 0x20 DUP6 ADD DUP3 PUSH2 0x17B5 JUMP JUMPDEST POP POP POP POP JUMP JUMPDEST PUSH2 0x1B09 DUP2 PUSH2 0x1CFB JUMP JUMPDEST DUP3 MSTORE POP POP JUMP JUMPDEST PUSH2 0x1B18 DUP2 PUSH2 0x1D29 JUMP JUMPDEST DUP3 MSTORE POP POP JUMP JUMPDEST PUSH2 0x1B27 DUP2 PUSH2 0x1D29 JUMP JUMPDEST DUP3 MSTORE POP POP JUMP JUMPDEST PUSH2 0x1B36 DUP2 PUSH2 0x1D33 JUMP JUMPDEST DUP3 MSTORE POP POP JUMP JUMPDEST PUSH2 0x1B45 DUP2 PUSH2 0x1D43 JUMP JUMPDEST DUP3 MSTORE POP POP JUMP JUMPDEST PUSH2 0x1B54 DUP2 PUSH2 0x1D57 JUMP JUMPDEST DUP3 MSTORE POP POP JUMP JUMPDEST PUSH1 0x0 PUSH1 0x40 DUP3 ADD SWAP1 POP DUP2 DUP2 SUB PUSH1 0x0 DUP4 ADD MSTORE PUSH2 0x1B74 DUP2 DUP6 PUSH2 0x1822 JUMP JUMPDEST SWAP1 POP PUSH2 0x1B83 PUSH1 0x20 DUP4 ADD DUP5 PUSH2 0x1880 JUMP JUMPDEST SWAP4 SWAP3 POP POP POP JUMP JUMPDEST PUSH1 0x0 PUSH1 0x20 DUP3 ADD SWAP1 POP DUP2 DUP2 SUB PUSH1 0x0 DUP4 ADD MSTORE PUSH2 0x1BA4 DUP2 DUP5 PUSH2 0x18AD JUMP JUMPDEST SWAP1 POP SWAP3 SWAP2 POP POP JUMP JUMPDEST PUSH1 0x0 PUSH1 0x20 DUP3 ADD SWAP1 POP PUSH2 0x1BC1 PUSH1 0x0 DUP4 ADD DUP5 PUSH2 0x1B1E JUMP JUMPDEST SWAP3 SWAP2 POP POP JUMP JUMPDEST PUSH1 0x0 PUSH1 0x40 MLOAD SWAP1 POP DUP2 DUP2 ADD DUP2 DUP2 LT PUSH8 0xFFFFFFFFFFFFFFFF DUP3 GT OR ISZERO PUSH2 0x1BEE JUMPI PUSH2 0x1BED PUSH2 0x1D97 JUMP JUMPDEST JUMPDEST DUP1 PUSH1 0x40 MSTORE POP SWAP2 SWAP1 POP JUMP JUMPDEST PUSH1 0x0 PUSH8 0xFFFFFFFFFFFFFFFF DUP3 GT ISZERO PUSH2 0x1C13 JUMPI PUSH2 0x1C12 PUSH2 0x1D97 JUMP JUMPDEST JUMPDEST PUSH1 0x20 DUP3 MUL SWAP1 POP PUSH1 0x20 DUP2 ADD SWAP1 POP SWAP2 SWAP1 POP JUMP JUMPDEST PUSH1 0x0 PUSH8 0xFFFFFFFFFFFFFFFF DUP3 GT ISZERO PUSH2 0x1C3F JUMPI PUSH2 0x1C3E PUSH2 0x1D97 JUMP JUMPDEST JUMPDEST PUSH1 0x1F NOT PUSH1 0x1F DUP4 ADD AND SWAP1 POP PUSH1 0x20 DUP2 ADD SWAP1 POP SWAP2 SWAP1 POP JUMP JUMPDEST PUSH1 0x0 DUP2 SWAP1 POP PUSH1 0x20 DUP3 ADD SWAP1 POP SWAP2 SWAP1 POP JUMP JUMPDEST PUSH1 0x0 DUP2 SWAP1 POP PUSH1 0x20 DUP3 ADD SWAP1 POP SWAP2 SWAP1 POP JUMP JUMPDEST PUSH1 0x0 DUP2 MLOAD SWAP1 POP SWAP2 SWAP1 POP JUMP JUMPDEST PUSH1 0x0 DUP2 MLOAD SWAP1 POP SWAP2 SWAP1 POP JUMP JUMPDEST PUSH1 0x0 PUSH1 0x20 DUP3 ADD SWAP1 POP SWAP2 SWAP1 POP JUMP JUMPDEST PUSH1 0x0 PUSH1 0x20 DUP3 ADD SWAP1 POP SWAP2 SWAP1 POP JUMP JUMPDEST PUSH1 0x0 DUP3 DUP3 MSTORE PUSH1 0x20 DUP3 ADD SWAP1 POP SWAP3 SWAP2 POP POP JUMP JUMPDEST PUSH1 0x0 DUP3 DUP3 MSTORE PUSH1 0x20 DUP3 ADD SWAP1 POP SWAP3 SWAP2 POP POP JUMP JUMPDEST PUSH1 0x0 PUSH2 0x1CD1 DUP3 PUSH2 0x1D09 JUMP JUMPDEST SWAP1 POP SWAP2 SWAP1 POP JUMP JUMPDEST PUSH1 0x0 DUP2 ISZERO ISZERO SWAP1 POP SWAP2 SWAP1 POP JUMP JUMPDEST PUSH1 0x0 DUP2 SWAP1 POP SWAP2 SWAP1 POP JUMP JUMPDEST PUSH1 0x0 DUP2 PUSH1 0x3 SIGNEXTEND SWAP1 POP SWAP2 SWAP1 POP JUMP JUMPDEST PUSH1 0x0 PUSH2 0xFFFF DUP3 AND SWAP1 POP SWAP2 SWAP1 POP JUMP JUMPDEST PUSH1 0x0 PUSH20 0xFFFFFFFFFFFFFFFFFFFFFFFFFFFFFFFFFFFFFFFF DUP3 AND SWAP1 POP SWAP2 SWAP1 POP JUMP JUMPDEST PUSH1 0x0 DUP2 SWAP1 POP SWAP2 SWAP1 POP JUMP JUMPDEST PUSH1 0x0 PUSH4 0xFFFFFFFF DUP3 AND SWAP1 POP SWAP2 SWAP1 POP JUMP JUMPDEST PUSH1 0x0 PUSH8 0xFFFFFFFFFFFFFFFF DUP3 AND SWAP1 POP SWAP2 SWAP1 POP JUMP JUMPDEST PUSH1 0x0 PUSH1 0xFF DUP3 AND SWAP1 POP SWAP2 SWAP1 POP JUMP JUMPDEST PUSH1 0x0 JUMPDEST DUP4 DUP2 LT ISZERO PUSH2 0x1D82 JUMPI DUP1 DUP3 ADD MLOAD DUP2 DUP5 ADD MSTORE PUSH1 0x20 DUP2 ADD SWAP1 POP PUSH2 0x1D67 JUMP JUMPDEST DUP4 DUP2 GT ISZERO PUSH2 0x1D91 JUMPI PUSH1 0x0 DUP5 DUP5 ADD MSTORE JUMPDEST POP POP POP POP JUMP JUMPDEST INVALID JUMPDEST PUSH2 0x1DA2 DUP2 PUSH2 0x1CC6 JUMP JUMPDEST DUP2 EQ PUSH2 0x1DAD JUMPI PUSH1 0x0 DUP1 REVERT JUMPDEST POP JUMP JUMPDEST PUSH2 0x1DB9 DUP2 PUSH2 0x1D29 JUMP JUMPDEST DUP2 EQ PUSH2 0x1DC4 JUMPI PUSH1 0x0 DUP1 REVERT JUMPDEST POP JUMP JUMPDEST PUSH2 0x1DD0 DUP2 PUSH2 0x1D33 JUMP JUMPDEST DUP2 EQ PUSH2 0x1DDB JUMPI PUSH1 0x0 DUP1 REVERT JUMPDEST POP JUMP JUMPDEST PUSH2 0x1DE7 DUP2 PUSH2 0x1D43 JUMP JUMPDEST DUP2 EQ PUSH2 0x1DF2 JUMPI PUSH1 0x0 DUP1 REVERT JUMPDEST POP JUMP JUMPDEST PUSH2 0x1DFE DUP2 PUSH2 0x1D57 JUMP JUMPDEST DUP2 EQ PUSH2 0x1E09 JUMPI PUSH1 0x0 DUP1 REVERT JUMPDEST POP JUMP INVALID LOG2 PUSH5 0x6970667358 0x22 SLT KECCAK256 PUSH3 0x5EB96D POP PUSH11 0x829595EFCFC4077357D055 0x5E SAR PC 0xFC 0xA9 0x1E PUSH16 0x1FCD182CF80F6A0D64736F6C63430007 MOD STOP CALLER "
		},
		"gasEstimates": {
			"creation": {
				"codeDepositCost": "1549200",
				"executionCost": "infinite",
				"totalCost": "infinite"
			},
			"external": {
				"convertFromVerusNumber(uint256,uint8)": "infinite",
				"convertToVerusNumber(uint256,uint8)": "infinite",
				"generateCCE((uint32,(address,uint64),uint32,address,uint256,(uint8,address),address,address,address)[])": "infinite"
			},
			"internal": {
				"inCurrencies(address)": "infinite",
				"inFees(address)": "infinite",
				"quickSort(struct VerusObjects.CCurrencyValueMap storage ref[] storage pointer,int256,int256)": "infinite"
			}
		},
		"methodIdentifiers": {
			"convertFromVerusNumber(uint256,uint8)": "d5b91a92",
			"convertToVerusNumber(uint256,uint8)": "38eb07e1",
			"generateCCE((uint32,(address,uint64),uint32,address,uint256,(uint8,address),address,address,address)[])": "bdfcfddd"
		}
	},
	"abi": [
		{
			"inputs": [
				{
					"internalType": "address",
					"name": "_verusSerializerAddress",
					"type": "address"
				}
			],
			"stateMutability": "nonpayable",
			"type": "constructor"
		},
		{
			"inputs": [
				{
					"internalType": "uint256",
					"name": "a",
					"type": "uint256"
				},
				{
					"internalType": "uint8",
					"name": "decimals",
					"type": "uint8"
				}
			],
			"name": "convertFromVerusNumber",
			"outputs": [
				{
					"internalType": "uint256",
					"name": "",
					"type": "uint256"
				}
			],
			"stateMutability": "pure",
			"type": "function"
		},
		{
			"inputs": [
				{
					"internalType": "uint256",
					"name": "a",
					"type": "uint256"
				},
				{
					"internalType": "uint8",
					"name": "decimals",
					"type": "uint8"
				}
			],
			"name": "convertToVerusNumber",
			"outputs": [
				{
					"internalType": "uint256",
					"name": "",
					"type": "uint256"
				}
			],
			"stateMutability": "pure",
			"type": "function"
		},
		{
			"inputs": [
				{
					"components": [
						{
							"internalType": "uint32",
							"name": "version",
							"type": "uint32"
						},
						{
							"components": [
								{
									"internalType": "address",
									"name": "currency",
									"type": "address"
								},
								{
									"internalType": "uint64",
									"name": "amount",
									"type": "uint64"
								}
							],
							"internalType": "struct VerusObjects.CCurrencyValueMap",
							"name": "currencyvalue",
							"type": "tuple"
						},
						{
							"internalType": "uint32",
							"name": "flags",
							"type": "uint32"
						},
						{
							"internalType": "address",
							"name": "feecurrencyid",
							"type": "address"
						},
						{
							"internalType": "uint256",
							"name": "fees",
							"type": "uint256"
						},
						{
							"components": [
								{
									"internalType": "uint8",
									"name": "destinationtype",
									"type": "uint8"
								},
								{
									"internalType": "address",
									"name": "destinationaddress",
									"type": "address"
								}
							],
							"internalType": "struct VerusObjectsCommon.CTransferDestination",
							"name": "destination",
							"type": "tuple"
						},
						{
							"internalType": "address",
							"name": "destcurrencyid",
							"type": "address"
						},
						{
							"internalType": "address",
							"name": "destsystemid",
							"type": "address"
						},
						{
							"internalType": "address",
							"name": "secondreserveid",
							"type": "address"
						}
					],
					"internalType": "struct VerusObjects.CReserveTransfer[]",
					"name": "transfers",
					"type": "tuple[]"
				}
			],
			"name": "generateCCE",
			"outputs": [
				{
					"components": [
						{
							"internalType": "uint16",
							"name": "version",
							"type": "uint16"
						},
						{
							"internalType": "uint16",
							"name": "flags",
							"type": "uint16"
						},
						{
							"internalType": "address",
							"name": "sourcesystemid",
							"type": "address"
						},
						{
							"internalType": "uint32",
							"name": "sourceheightstart",
							"type": "uint32"
						},
						{
							"internalType": "uint32",
							"name": "sourceheightend",
							"type": "uint32"
						},
						{
							"internalType": "address",
							"name": "destinationsystemid",
							"type": "address"
						},
						{
							"internalType": "address",
							"name": "destinationcurrencyid",
							"type": "address"
						},
						{
							"internalType": "uint32",
							"name": "numinputs",
							"type": "uint32"
						},
						{
							"components": [
								{
									"internalType": "address",
									"name": "currency",
									"type": "address"
								},
								{
									"internalType": "uint64",
									"name": "amount",
									"type": "uint64"
								}
							],
							"internalType": "struct VerusObjects.CCurrencyValueMap[]",
							"name": "totalamounts",
							"type": "tuple[]"
						},
						{
							"components": [
								{
									"internalType": "address",
									"name": "currency",
									"type": "address"
								},
								{
									"internalType": "uint64",
									"name": "amount",
									"type": "uint64"
								}
							],
							"internalType": "struct VerusObjects.CCurrencyValueMap[]",
							"name": "totalfees",
							"type": "tuple[]"
						},
						{
							"internalType": "bytes32",
							"name": "hashtransfers",
							"type": "bytes32"
						},
						{
							"components": [
								{
									"internalType": "address",
									"name": "currency",
									"type": "address"
								},
								{
									"internalType": "uint64",
									"name": "amount",
									"type": "uint64"
								}
							],
							"internalType": "struct VerusObjects.CCurrencyValueMap[]",
							"name": "totalburned",
							"type": "tuple[]"
						},
						{
							"components": [
								{
									"internalType": "uint8",
									"name": "destinationtype",
									"type": "uint8"
								},
								{
									"internalType": "address",
									"name": "destinationaddress",
									"type": "address"
								}
							],
							"internalType": "struct VerusObjectsCommon.CTransferDestination",
							"name": "rewardaddress",
							"type": "tuple"
						},
						{
							"internalType": "int32",
							"name": "firstinput",
							"type": "int32"
						}
					],
					"internalType": "struct VerusObjects.CCrossChainExport",
					"name": "",
					"type": "tuple"
				}
			],
			"stateMutability": "nonpayable",
			"type": "function"
		}
	]
}